{
  "contractName": "AcceptBid",
  "abi": [
    {
      "constant": true,
      "inputs": [],
      "name": "manager",
      "outputs": [
        {
          "name": "",
          "type": "address"
        }
      ],
      "payable": false,
      "stateMutability": "view",
      "type": "function"
    },
    {
      "constant": true,
      "inputs": [
        {
          "name": "",
          "type": "uint256"
        }
      ],
      "name": "bidMaps",
      "outputs": [
        {
          "name": "",
          "type": "string"
        }
      ],
      "payable": false,
      "stateMutability": "view",
      "type": "function"
    },
    {
      "inputs": [],
      "payable": false,
      "stateMutability": "nonpayable",
      "type": "constructor"
    },
    {
      "constant": false,
      "inputs": [
        {
          "name": "_bidId",
          "type": "string"
        },
        {
          "name": "_tenderRefNo",
          "type": "uint256"
        },
        {
          "name": "_tenderName",
          "type": "string"
        },
        {
          "name": "_bidSubmissionOpeningDate",
          "type": "uint256"
        },
        {
          "name": "_bidSubmissionClosingDate",
          "type": "uint256"
        },
        {
          "name": "_bidderId",
          "type": "string"
        },
        {
          "name": "_key",
          "type": "string"
        },
        {
          "name": "_bidAmount",
          "type": "uint256"
        }
      ],
      "name": "acceptBid",
      "outputs": [
        {
          "name": "bidderId",
          "type": "string"
        }
      ],
      "payable": false,
      "stateMutability": "nonpayable",
      "type": "function"
    },
    {
      "constant": true,
      "inputs": [],
      "name": "displayAllBids",
      "outputs": [
        {
          "name": "",
          "type": "string[]"
        }
      ],
      "payable": false,
      "stateMutability": "view",
      "type": "function"
    },
    {
      "constant": true,
      "inputs": [
        {
          "name": "_bidId",
          "type": "string"
        }
      ],
      "name": "displayTechnicalBid",
      "outputs": [
        {
          "name": "_biddingId",
          "type": "string"
        },
        {
          "name": "biddingStatus",
          "type": "uint256"
        }
      ],
      "payable": false,
      "stateMutability": "view",
      "type": "function"
    },
    {
      "constant": true,
      "inputs": [
        {
          "name": "_bidId",
          "type": "string"
        }
      ],
      "name": "displayFinancialBid",
      "outputs": [
        {
          "name": "key",
          "type": "string"
        },
        {
          "name": "bidAmount",
          "type": "uint256"
        }
      ],
      "payable": false,
      "stateMutability": "view",
      "type": "function"
    },
    {
      "constant": false,
      "inputs": [
        {
          "name": "_bidId",
          "type": "string"
        },
        {
          "name": "newStatus",
          "type": "uint256"
        }
      ],
      "name": "updateStatus",
      "outputs": [
        {
          "name": "",
          "type": "bool"
        }
      ],
      "payable": false,
      "stateMutability": "nonpayable",
      "type": "function"
    }
  ],
  "bytecode": "0x608060405234801561001057600080fd5b50336000806101000a81548173ffffffffffffffffffffffffffffffffffffffff021916908373ffffffffffffffffffffffffffffffffffffffff160217905550611bc0806100606000396000f3fe60806040526004361061007d576000357c0100000000000000000000000000000000000000000000000000000000900480630e26dc3514610082578063366b657b146100c057806339277f6f146100fd578063481c6a751461013b578063605b673f14610166578063c38dd091146101a3578063e6587ef6146101e0575b600080fd5b34801561008e57600080fd5b506100a960048036036100a49190810190611423565b61020b565b6040516100b792919061193d565b60405180910390f35b3480156100cc57600080fd5b506100e760048036036100e29190810190611464565b6104d4565b6040516100f491906118de565b60405180910390f35b34801561010957600080fd5b50610124600480360361011f9190810190611423565b6107d8565b60405161013292919061193d565b60405180910390f35b34801561014757600080fd5b50610150610a13565b60405161015d91906118a1565b60405180910390f35b34801561017257600080fd5b5061018d600480360361018891908101906115ca565b610a38565b60405161019a91906118f9565b60405180910390f35b3480156101af57600080fd5b506101ca60048036036101c591908101906114b8565b610af3565b6040516101d7919061191b565b60405180910390f35b3480156101ec57600080fd5b506101f561122b565b60405161020291906118bc565b60405180910390f35b606060008060009054906101000a900473ffffffffffffffffffffffffffffffffffffffff1673ffffffffffffffffffffffffffffffffffffffff163373ffffffffffffffffffffffffffffffffffffffff161415156102a0576040517f08c379a00000000000000000000000000000000000000000000000000000000081526004016102979061196d565b60405180910390fd5b8260016002826040518082805190602001908083835b6020831015156102db57805182526020820191506020810190506020830392506102b6565b6001836020036101000a038019825116818451168082178552505050505050905001915050908152602001604051809103902054141515610351576040517f08c379a000000000000000000000000000000000000000000000000000000000815260040161034890611a0d565b60405180910390fd5b6001846040518082805190602001908083835b6020831015156103895780518252602082019150602081019050602083039250610364565b6001836020036101000a03801982511681845116808217855250505050505090500191505090815260200160405180910390206000016001856040518082805190602001908083835b6020831015156103f757805182526020820191506020810190506020830392506103d2565b6001836020036101000a038019825116818451168082178552505050505050905001915050908152602001604051809103902060070154818054600181600116156101000203166002900480601f0160208091040260200160405190810160405280929190818152602001828054600181600116156101000203166002900480156104c35780601f10610498576101008083540402835291602001916104c3565b820191906000526020600020905b8154815290600101906020018083116104a657829003601f168201915b505050505091509250925050915091565b60008060009054906101000a900473ffffffffffffffffffffffffffffffffffffffff1673ffffffffffffffffffffffffffffffffffffffff163373ffffffffffffffffffffffffffffffffffffffff16141515610567576040517f08c379a000000000000000000000000000000000000000000000000000000000815260040161055e9061196d565b60405180910390fd5b816000811115156105ad576040517f08c379a00000000000000000000000000000000000000000000000000000000081526004016105a49061198d565b60405180910390fd5b6004811015156105f2576040517f08c379a00000000000000000000000000000000000000000000000000000000081526004016105e99061198d565b60405180910390fd5b826001856040518082805190602001908083835b60208310151561062b5780518252602082019150602081019050602083039250610606565b6001836020036101000a03801982511681845116808217855250505050505090500191505090815260200160405180910390206007015410156107965760026001856040518082805190602001908083835b6020831015156106a2578051825260208201915060208101905060208303925061067d565b6001836020036101000a038019825116818451168082178552505050505050905001915050908152602001604051809103902060070154141561071a576040517f08c379a000000000000000000000000000000000000000000000000000000000815260040161071190611a2d565b60405180910390fd5b826001856040518082805190602001908083835b602083101515610753578051825260208201915060208101905060208303925061072e565b6001836020036101000a038019825116818451168082178552505050505050905001915050908152602001604051809103902060070181905550600191506107d1565b6040517f08c379a00000000000000000000000000000000000000000000000000000000081526004016107c8906119ed565b60405180910390fd5b5092915050565b606060008260006001826040518082805190602001908083835b60208310151561081757805182526020820191506020810190506020830392506107f2565b6001836020036101000a038019825116818451168082178552505050505050905001915050908152602001604051809103902060070154111515610890576040517f08c379a0000000000000000000000000000000000000000000000000000000008152600401610887906119cd565b60405180910390fd5b6001846040518082805190602001908083835b6020831015156108c857805182526020820191506020810190506020830392506108a3565b6001836020036101000a03801982511681845116808217855250505050505090500191505090815260200160405180910390206009016001856040518082805190602001908083835b6020831015156109365780518252602082019150602081019050602083039250610911565b6001836020036101000a038019825116818451168082178552505050505050905001915050908152602001604051809103902060080154818054600181600116156101000203166002900480601f016020809104026020016040519081016040528092919081815260200182805460018160011615610100020316600290048015610a025780601f106109d757610100808354040283529160200191610a02565b820191906000526020600020905b8154815290600101906020018083116109e557829003601f168201915b505050505091509250925050915091565b6000809054906101000a900473ffffffffffffffffffffffffffffffffffffffff1681565b600381815481101515610a4757fe5b906000526020600020016000915090508054600181600116156101000203166002900480601f016020809104026020016040519081016040528092919081815260200182805460018160011615610100020316600290048015610aeb5780601f10610ac057610100808354040283529160200191610aeb565b820191906000526020600020905b815481529060010190602001808311610ace57829003601f168201915b505050505081565b60608860006002826040518082805190602001908083835b602083101515610b305780518252602082019150602081019050602083039250610b0b565b6001836020036101000a038019825116818451168082178552505050505050905001915050908152602001604051809103902054141515610ba6576040517f08c379a0000000000000000000000000000000000000000000000000000000008152600401610b9d906119ad565b60405180910390fd5b8960018b6040518082805190602001908083835b602083101515610bdf5780518252602082019150602081019050602083039250610bba565b6001836020036101000a03801982511681845116808217855250505050505090500191505090815260200160405180910390206000019080519060200190610c28929190611314565b508860018b6040518082805190602001908083835b602083101515610c625780518252602082019150602081019050602083039250610c3d565b6001836020036101000a0380198251168184511680821785525050505050509050019150509081526020016040518091039020600101819055508760018b6040518082805190602001908083835b602083101515610cd55780518252602082019150602081019050602083039250610cb0565b6001836020036101000a03801982511681845116808217855250505050505090500191505090815260200160405180910390206002019080519060200190610d1e929190611314565b508660018b6040518082805190602001908083835b602083101515610d585780518252602082019150602081019050602083039250610d33565b6001836020036101000a0380198251168184511680821785525050505050509050019150509081526020016040518091039020600301819055508560018b6040518082805190602001908083835b602083101515610dcb5780518252602082019150602081019050602083039250610da6565b6001836020036101000a0380198251168184511680821785525050505050509050019150509081526020016040518091039020600401819055504260018b6040518082805190602001908083835b602083101515610e3e5780518252602082019150602081019050602083039250610e19565b6001836020036101000a0380198251168184511680821785525050505050509050019150509081526020016040518091039020600601819055508460018b6040518082805190602001908083835b602083101515610eb15780518252602082019150602081019050602083039250610e8c565b6001836020036101000a03801982511681845116808217855250505050505090500191505090815260200160405180910390206005019080519060200190610efa929190611314565b508360018b6040518082805190602001908083835b602083101515610f345780518252602082019150602081019050602083039250610f0f565b6001836020036101000a03801982511681845116808217855250505050505090500191505090815260200160405180910390206009019080519060200190610f7d929190611314565b508260018b6040518082805190602001908083835b602083101515610fb75780518252602082019150602081019050602083039250610f92565b6001836020036101000a038019825116818451168082178552505050505050905001915050908152602001604051809103902060080181905550600060018b6040518082805190602001908083835b60208310151561102b5780518252602082019150602081019050602083039250611006565b6001836020036101000a038019825116818451168082178552505050505050905001915050908152602001604051809103902060070181905550600160028b6040518082805190602001908083835b60208310151561109f578051825260208201915060208101905060208303925061107a565b6001836020036101000a03801982511681845116808217855250505050505090500191505090815260200160405180910390208190555060038a9080600181540180825580915050906001820390600052602060002001600090919290919091509080519060200190611113929190611314565b505060018a6040518082805190602001908083835b60208310151561114d5780518252602082019150602081019050602083039250611128565b6001836020036101000a03801982511681845116808217855250505050505090500191505090815260200160405180910390206005018054600181600116156101000203166002900480601f0160208091040260200160405190810160405280929190818152602001828054600181600116156101000203166002900480156112175780601f106111ec57610100808354040283529160200191611217565b820191906000526020600020905b8154815290600101906020018083116111fa57829003601f168201915b505050505091505098975050505050505050565b60606003805480602002602001604051908101604052809291908181526020016000905b8282101561130b578382906000526020600020018054600181600116156101000203166002900480601f0160208091040260200160405190810160405280929190818152602001828054600181600116156101000203166002900480156112f75780601f106112cc576101008083540402835291602001916112f7565b820191906000526020600020905b8154815290600101906020018083116112da57829003601f168201915b50505050508152602001906001019061124f565b50505050905090565b828054600181600116156101000203166002900490600052602060002090601f016020900481019282601f1061135557805160ff1916838001178555611383565b82800160010185558215611383579182015b82811115611382578251825591602001919060010190611367565b5b5090506113909190611394565b5090565b6113b691905b808211156113b257600081600090555060010161139a565b5090565b90565b600082601f83011215156113cc57600080fd5b81356113df6113da82611a7a565b611a4d565b915080825260208301602083018583830111156113fb57600080fd5b611406838284611b33565b50505092915050565b600061141b8235611b29565b905092915050565b60006020828403121561143557600080fd5b600082013567ffffffffffffffff81111561144f57600080fd5b61145b848285016113b9565b91505092915050565b6000806040838503121561147757600080fd5b600083013567ffffffffffffffff81111561149157600080fd5b61149d858286016113b9565b92505060206114ae8582860161140f565b9150509250929050565b600080600080600080600080610100898b0312156114d557600080fd5b600089013567ffffffffffffffff8111156114ef57600080fd5b6114fb8b828c016113b9565b985050602061150c8b828c0161140f565b975050604089013567ffffffffffffffff81111561152957600080fd5b6115358b828c016113b9565b96505060606115468b828c0161140f565b95505060806115578b828c0161140f565b94505060a089013567ffffffffffffffff81111561157457600080fd5b6115808b828c016113b9565b93505060c089013567ffffffffffffffff81111561159d57600080fd5b6115a98b828c016113b9565b92505060e06115ba8b828c0161140f565b9150509295985092959890939650565b6000602082840312156115dc57600080fd5b60006115ea8482850161140f565b91505092915050565b6115fc81611ae1565b82525050565b600061160d82611ab3565b8084526020840193508360208202850161162685611aa6565b60005b8481101561165f5783830388526116418383516116b5565b925061164c82611ad4565b9150602088019750600181019050611629565b508196508694505050505092915050565b61167981611af3565b82525050565b600061168a82611ac9565b80845261169e816020860160208601611b42565b6116a781611b75565b602085010191505092915050565b60006116c082611abe565b8084526116d4816020860160208601611b42565b6116dd81611b75565b602085010191505092915050565b6000600e82527f4163636573732044656e696564210000000000000000000000000000000000006020830152604082019050919050565b6000600e82527f496e76616c6964205374617475730000000000000000000000000000000000006020830152604082019050919050565b6000601082527f4475706c696361746520456e74727921000000000000000000000000000000006020830152604082019050919050565b6000601a82527f4e6f742041636365737369626c6520546563686e6963616c6c790000000000006020830152604082019050919050565b6000602082527f496e76616c6964205374617475732075706461746520726571756573746564216020830152604082019050919050565b6000601182527f4e6f20656e7472792050726573656e74210000000000000000000000000000006020830152604082019050919050565b6000602f82527f43616e206e6f74206368616e67652053746174652066726f6d2052454a45435460208301527f454420746f2041434345505445442100000000000000000000000000000000006040830152606082019050919050565b61189b81611b1f565b82525050565b60006020820190506118b660008301846115f3565b92915050565b600060208201905081810360008301526118d68184611602565b905092915050565b60006020820190506118f36000830184611670565b92915050565b6000602082019050818103600083015261191381846116b5565b905092915050565b60006020820190508181036000830152611935818461167f565b905092915050565b60006040820190508181036000830152611957818561167f565b90506119666020830184611892565b9392505050565b60006020820190508181036000830152611986816116eb565b9050919050565b600060208201905081810360008301526119a681611722565b9050919050565b600060208201905081810360008301526119c681611759565b9050919050565b600060208201905081810360008301526119e681611790565b9050919050565b60006020820190508181036000830152611a06816117c7565b9050919050565b60006020820190508181036000830152611a26816117fe565b9050919050565b60006020820190508181036000830152611a4681611835565b9050919050565b6000604051905081810181811067ffffffffffffffff82111715611a7057600080fd5b8060405250919050565b600067ffffffffffffffff821115611a9157600080fd5b601f19601f8301169050602081019050919050565b6000602082019050919050565b600081519050919050565b600081519050919050565b600081519050919050565b6000602082019050919050565b6000611aec82611aff565b9050919050565b60008115159050919050565b600073ffffffffffffffffffffffffffffffffffffffff82169050919050565b6000819050919050565b6000819050919050565b82818337600083830152505050565b60005b83811015611b60578082015181840152602081019050611b45565b83811115611b6f576000848401525b50505050565b6000601f19601f830116905091905056fea265627a7a7230582085f8a5e1b2914e9059161533f91dc474c4b3f46093d2f0c7362c40ccded1f4c56c6578706572696d656e74616cf50037",
  "source": "pragma solidity >= 0.5.0 < 0.7.0;\npragma experimental ABIEncoderV2;\n\ncontract AcceptBid  {\n    \n  address public manager;\n    \n  struct bidDetails{\n        string bidId; //i.e. bidding id\n        uint tenderRefNo;\n        string tenderName;\n        uint bidSubmissionOpeningDate;\n        uint bidSubmissionClosingDate;\n        string bidderId;\n        uint biddingDate;\n        uint status;  \n        // SUBMITTED, TECHNICAL ACCEPETED, REJECTED, AWARDED\n        uint bidAmount;\n        string key;\n  }\n     \n  mapping( string => bidDetails ) private BidMap;\n  mapping(string => uint) private idExist;\n  string[] public bidMaps;\n\n  //event AcceptedBid(string memory biddingId, uint tenderRefNo, string memory bidderId, uint biddingDate);\n  modifier onlyPresent(string memory _bidId){   require(idExist[_bidId]==1,\"No entry Present!\"); _;   }\n\n  modifier checkStatus(string memory _bidId){   require(BidMap[_bidId].status>0,\"Not Accessible Technically\");  _; }\n  \n  modifier onlyManager(){  require(msg.sender==manager,\"Access Denied!\"); _;  }\n  \n  modifier afterTenderClosingDate(string memory _bidId) {  require(BidMap[_bidId].bidSubmissionClosingDate < now,\"Bidding Not Closed!\"); _; }\n\n  modifier alreadyPresent(string memory _bidId){    require(idExist[_bidId]==0,\"Duplicate Entry!\"); _;  }\n\n  modifier newStatusValidity(uint newStatus) {    \n    require(newStatus>0,\"Invalid Status\");\n    require(newStatus<4,\"Invalid Status\");\n     _;  }\n\n  constructor() public { manager=msg.sender;  }\n\n  function acceptBid( string memory _bidId,uint _tenderRefNo,string memory _tenderName,uint _bidSubmissionOpeningDate,\n    uint _bidSubmissionClosingDate,string memory _bidderId, string memory _key, uint _bidAmount)\n    public //checkPresence(_bidId) \n    alreadyPresent(_bidId)\n     returns (string memory bidderId){\n      BidMap[_bidId].bidId=_bidId;\n      BidMap[_bidId].tenderRefNo=_tenderRefNo;\n      BidMap[_bidId].tenderName=_tenderName;\n      BidMap[_bidId].bidSubmissionOpeningDate=_bidSubmissionOpeningDate;\n      BidMap[_bidId].bidSubmissionClosingDate=_bidSubmissionClosingDate;\n      BidMap[_bidId].biddingDate=now;\n      BidMap[_bidId].bidderId=_bidderId;\n      BidMap[_bidId].key=_key;\n      BidMap[_bidId].bidAmount=_bidAmount;\n      BidMap[_bidId].status=0;\n      idExist[_bidId]=1;\n      bidMaps.push(_bidId);\n      return BidMap[_bidId].bidderId;\n  }\n    \n  function displayAllBids() public view returns (string[] memory ){  return bidMaps;   }\n  \n  function displayTechnicalBid(string memory _bidId) public view onlyManager //afterTenderClosingDate( _bidId )\n      onlyPresent(_bidId) returns (string memory _biddingId,uint biddingStatus){ //uint referenceNo, string  tenderTitle, string  bidderId, \n    \n      return(BidMap[_bidId].bidId,BidMap[_bidId].status); //BidMap[_bidId].tenderRefNo,BidMap[_bidId].tenderName,BidMap[_bidId].bidderId,  \n  }\n  \n  function displayFinancialBid(string memory _bidId)  public view  checkStatus(_bidId) \n      returns (string memory key, uint bidAmount){\n      return(BidMap[_bidId].key,BidMap[_bidId].bidAmount);\n  }\n  /*\n  function displayFinancialBid(string memory _bidId)  public view  checkStatus(_bidId) \n      returns (string memory key,uint bidAmount,string memory bidId){\n      return(BidMap[_bidId].key,BidMap[_bidId].bidAmount,_bidId);\n  }\n  */\n\n function updateStatus(string memory _bidId, uint newStatus) public onlyManager newStatusValidity(newStatus) \n returns (bool){\n    if(BidMap[_bidId].status<newStatus){\n      if(BidMap[_bidId].status==2){\n        revert(\"Can not change State from REJECTED to ACCEPTED!\");\n      }\n      BidMap[_bidId].status=newStatus;\n      return true;\n    }\n    else{\n      revert(\"Invalid Status update requested!\");\n    }\n }\n}\n  //function modifyBidClosingDate() {}  \n  //Modify it later Dont allow Engineer to view BidderId or bidderName\n    \n/*\n  Commands-------------\n  \n  AcceptBid.deployed().then(function(res){ accept =res ; })\n  \n  accept.displayAllBids()\n  \n  accept.acceptBid(\"b1\",\"11\",\"name\",\"1111\",\"2000\",\"bidderId1\",\"1234\",\"500000\")\n  \n  accept.displayTechnicalBid(\"b1\")\n\n accept.updateStatus(\"b1\",\"1\")\n\n  accept.displayFinancialBid(\"b1\")\n  \n  accept.updateStatus(\"b1\",\"3\")      \n  Technically Accepted => Awarded\n\n  accept.displayAllBids()\n  \n  \n  modifier checkPresence(uint _tenderRefNo){\n    require(BidMap[_bidId].bidId!=_bidId,\"\");\n    _;\n    \n  }\n  \n  function checkBidPresence(uint _bidId)  returns (bool ){\n    if(BidMap[_bidId].bidId==_bidId)\n      return true;\n    else\n      return false;\n}*/\n",
  "sourcePath": "C:\\Users\\Admin\\Desktop\\nodeProject\\SIH Gail E-tendering\\contracts\\AcceptBid.sol",
  "compiler": {
    "name": "solc",
    "version": "0.5.1+commit.c8a2cb62.Emscripten.clang"
  },
  "schemaVersion": "3.2.3",
  "updatedAt": "2020-08-03T09:11:30.948Z",
  "networkType": "ethereum",
  "devdoc": {
    "methods": {}
  },
  "userdoc": {
    "methods": {}
  }
}