{
  "contractName": "AcceptBid",
  "abi": [
    {
      "constant": true,
      "inputs": [],
      "name": "manager",
      "outputs": [
        {
          "name": "",
          "type": "address"
        }
      ],
      "payable": false,
      "stateMutability": "view",
      "type": "function"
    },
    {
      "constant": true,
      "inputs": [
        {
          "name": "",
          "type": "uint256"
        }
      ],
      "name": "bidMaps",
      "outputs": [
        {
          "name": "",
          "type": "uint256"
        }
      ],
      "payable": false,
      "stateMutability": "view",
      "type": "function"
    },
    {
      "inputs": [],
      "payable": false,
      "stateMutability": "nonpayable",
      "type": "constructor"
    },
    {
      "anonymous": false,
      "inputs": [
        {
          "indexed": false,
          "name": "bidId",
          "type": "uint256"
        },
        {
          "indexed": false,
          "name": "tenderRefNo",
          "type": "uint256"
        },
        {
          "indexed": false,
          "name": "bidderId",
          "type": "uint256"
        },
        {
          "indexed": false,
          "name": "biddingDate",
          "type": "uint256"
        }
      ],
      "name": "AcceptedBid",
      "type": "event"
    },
    {
      "constant": false,
      "inputs": [
        {
          "name": "_bidId",
          "type": "uint256"
        },
        {
          "name": "_tenderRefNo",
          "type": "uint256"
        },
        {
          "name": "_tenderName",
          "type": "string"
        },
        {
          "name": "_bidSubmissionOpeningDate",
          "type": "uint256"
        },
        {
          "name": "_bidSubmissionClosingDate",
          "type": "uint256"
        },
        {
          "name": "_bidderId",
          "type": "uint256"
        },
        {
          "name": "_bidderName",
          "type": "string"
        },
        {
          "name": "_bidAmount",
          "type": "uint256"
        }
      ],
      "name": "acceptBid",
      "outputs": [
        {
          "name": "",
          "type": "bool"
        }
      ],
      "payable": true,
      "stateMutability": "payable",
      "type": "function"
    },
    {
      "constant": true,
      "inputs": [],
      "name": "displayAllBids",
      "outputs": [
        {
          "name": "",
          "type": "uint256[]"
        }
      ],
      "payable": false,
      "stateMutability": "view",
      "type": "function"
    },
    {
      "constant": true,
      "inputs": [
        {
          "name": "_bidId",
          "type": "uint256"
        }
      ],
      "name": "displayBid",
      "outputs": [
        {
          "name": "",
          "type": "uint256"
        },
        {
          "name": "",
          "type": "uint256"
        },
        {
          "name": "",
          "type": "string"
        },
        {
          "name": "",
          "type": "uint256"
        },
        {
          "name": "",
          "type": "string"
        },
        {
          "name": "",
          "type": "uint256"
        }
      ],
      "payable": false,
      "stateMutability": "view",
      "type": "function"
    }
  ],
  "bytecode": "0x608060405234801561001057600080fd5b50336000806101000a81548173ffffffffffffffffffffffffffffffffffffffff021916908373ffffffffffffffffffffffffffffffffffffffff160217905550610b6c806100606000396000f3fe608060405260043610610067576000357c010000000000000000000000000000000000000000000000000000000090048063062ed6561461006c5780632405ef8a146101a8578063481c6a751461034f578063605b673f146103a6578063e6587ef6146103f5575b600080fd5b34801561007857600080fd5b506100a56004803603602081101561008f57600080fd5b8101908080359060200190929190505050610461565b604051808781526020018681526020018060200185815260200180602001848152602001838103835287818151815260200191508051906020019080838360005b838110156101015780820151818401526020810190506100e6565b50505050905090810190601f16801561012e5780820380516001836020036101000a031916815260200191505b50838103825285818151815260200191508051906020019080838360005b8381101561016757808201518184015260208101905061014c565b50505050905090810190601f1680156101945780820380516001836020036101000a031916815260200191505b509850505050505050505060405180910390f35b61033560048036036101008110156101bf57600080fd5b810190808035906020019092919080359060200190929190803590602001906401000000008111156101f057600080fd5b82018360208201111561020257600080fd5b8035906020019184600183028401116401000000008311171561022457600080fd5b91908080601f016020809104026020016040519081016040528093929190818152602001838380828437600081840152601f19601f820116905080830192505050505050509192919290803590602001909291908035906020019092919080359060200190929190803590602001906401000000008111156102a557600080fd5b8201836020820111156102b757600080fd5b803590602001918460018302840111640100000000831117156102d957600080fd5b91908080601f016020809104026020016040519081016040528093929190818152602001838380828437600081840152601f19601f82011690508083019250505050505050919291929080359060200190929190505050610794565b604051808215151515815260200191505060405180910390f35b34801561035b57600080fd5b50610364610937565b604051808273ffffffffffffffffffffffffffffffffffffffff1673ffffffffffffffffffffffffffffffffffffffff16815260200191505060405180910390f35b3480156103b257600080fd5b506103df600480360360208110156103c957600080fd5b810190808035906020019092919050505061095c565b6040518082815260200191505060405180910390f35b34801561040157600080fd5b5061040a61097f565b6040518080602001828103825283818151815260200191508051906020019060200280838360005b8381101561044d578082015181840152602081019050610432565b505050509050019250505060405180910390f35b60008060606000606060008060009054906101000a900473ffffffffffffffffffffffffffffffffffffffff1673ffffffffffffffffffffffffffffffffffffffff163373ffffffffffffffffffffffffffffffffffffffff16141515610530576040517f08c379a000000000000000000000000000000000000000000000000000000000815260040180806020018281038252600e8152602001807f4163636573732044656e6965642100000000000000000000000000000000000081525060200191505060405180910390fd5b864260016000838152602001908152602001600020600401541015156105be576040517f08c379a00000000000000000000000000000000000000000000000000000000081526004018080602001828103825260138152602001807f42696464696e67204e6f7420436c6f736564210000000000000000000000000081525060200191505060405180910390fd5b6001600089815260200190815260200160002060000154600160008a815260200190815260200160002060010154600160008b8152602001908152602001600020600201600160008c815260200190815260200160002060050154600160008d8152602001908152602001600020600601600160008e815260200190815260200160002060080154838054600181600116156101000203166002900480601f0160208091040260200160405190810160405280929190818152602001828054600181600116156101000203166002900480156106db5780601f106106b0576101008083540402835291602001916106db565b820191906000526020600020905b8154815290600101906020018083116106be57829003601f168201915b50505050509350818054600181600116156101000203166002900480601f0160208091040260200160405190810160405280929190818152602001828054600181600116156101000203166002900480156107775780601f1061074c57610100808354040283529160200191610777565b820191906000526020600020905b81548152906001019060200180831161075a57829003601f168201915b505050505091509650965096509650965096505091939550919395565b600088600160008b81526020019081526020016000206000018190555087600160008b81526020019081526020016000206001018190555086600160008b815260200190815260200160002060020190805190602001906107f6929190610a9b565b5085600160008b81526020019081526020016000206003018190555084600160008b81526020019081526020016000206004018190555042600160008b81526020019081526020016000206007018190555083600160008b81526020019081526020016000206005018190555082600160008b8152602001908152602001600020600601908051906020019061088d929190610a9b565b5081600160008b815260200190815260200160002060080181905550600160028a9080600181540180825580915050906001820390600052602060002001600090919290919091505550507ff3dcb1470788b6fc611aa31a4b8290ab1bd5e74bf635a268a8a8c76b960b2e04898986426040518085815260200184815260200183815260200182815260200194505050505060405180910390a16001905098975050505050505050565b6000809054906101000a900473ffffffffffffffffffffffffffffffffffffffff1681565b60028181548110151561096b57fe5b906000526020600020016000915090505481565b60606000809054906101000a900473ffffffffffffffffffffffffffffffffffffffff1673ffffffffffffffffffffffffffffffffffffffff163373ffffffffffffffffffffffffffffffffffffffff16141515610a45576040517f08c379a000000000000000000000000000000000000000000000000000000000815260040180806020018281038252600e8152602001807f4163636573732044656e6965642100000000000000000000000000000000000081525060200191505060405180910390fd5b6002805480602002602001604051908101604052809291908181526020018280548015610a9157602002820191906000526020600020905b815481526020019060010190808311610a7d575b5050505050905090565b828054600181600116156101000203166002900490600052602060002090601f016020900481019282601f10610adc57805160ff1916838001178555610b0a565b82800160010185558215610b0a579182015b82811115610b09578251825591602001919060010190610aee565b5b509050610b179190610b1b565b5090565b610b3d91905b80821115610b39576000816000905550600101610b21565b5090565b9056fea165627a7a72305820c24f6e0d4baf50a7abcb63c0824ad021b784bb5e82b70e018e810aaaf875401e0029",
  "source": "pragma solidity >= 0.5.0 < 0.7.0;\n\ncontract AcceptBid  {\n    \n  address public manager;\n    \n  struct BidDetails{\n        //unique identifier\n        uint bidId;\n        //Tender Details with time \n        uint tenderRefNo;\n        string tenderName;\n        uint bidSubmissionOpeningDate;\n        uint bidSubmissionClosingDate;\n        //Bid details \n        uint bidderId;\n        string bidderName;\n        uint biddingDate;\n        uint bidAmount;\n  }\n     \n  mapping( uint => BidDetails ) BidMap;\n    \n  uint[] public bidMaps;\n\n  event AcceptedBid(uint bidId, uint tenderRefNo, uint bidderId, uint biddingDate);\n\n  constructor() public {\n    manager=msg.sender;\n  }\n    \n  function acceptBid(\n    uint _bidId,uint _tenderRefNo,string memory _tenderName,uint _bidSubmissionOpeningDate,\n    uint _bidSubmissionClosingDate,uint _bidderId, string memory _bidderName, uint _bidAmount)\n    public //checkPresence(_bidId) \n    payable returns (bool ){\n\n    \n      BidMap[_bidId].bidId=_bidId;\n      BidMap[_bidId].tenderRefNo=_tenderRefNo;\n      BidMap[_bidId].tenderName=_tenderName;\n      BidMap[_bidId].bidSubmissionOpeningDate=_bidSubmissionOpeningDate;\n      BidMap[_bidId].bidSubmissionClosingDate=_bidSubmissionClosingDate;\n      BidMap[_bidId].biddingDate=now;\n      BidMap[_bidId].bidderId=_bidderId;\n      BidMap[_bidId].bidderName=_bidderName;\n      BidMap[_bidId].bidAmount=_bidAmount;\n          \n      bidMaps.push(_bidId)-1;\n\n      emit AcceptedBid(_bidId, _tenderRefNo,_bidderId,now);\n      return true;\n    //}\n  }\n    \n  function displayAllBids() public view onlyManager returns (uint[] memory){\n    return bidMaps;\n  }\n    \n  function displayBid(uint _bidId) public view onlyManager afterTenderClosingDate( _bidId )\n    returns (uint, uint, string memory, uint, string memory ,uint){\n        \n      return (BidMap[_bidId].bidId,BidMap[_bidId].tenderRefNo,\n      BidMap[_bidId].tenderName,BidMap[_bidId].bidderId,\n      BidMap[_bidId].bidderName,BidMap[_bidId].bidAmount);\n  }\n\n  //function modifyBidClosingDate() payable{}  \n  //Modify it later Dont allow Engineer to view BidderId or bidderName\n  modifier onlyManager(){\n      require(msg.sender==manager,\"Access Denied!\"); \n      _;\n  }\n    \n  modifier afterTenderClosingDate(uint _bidId) {\n      require(BidMap[_bidId].bidSubmissionClosingDate < now,\"Bidding Not Closed!\");\n       _;\n  }\n\n  /*modifier checkPresence(uint _tenderRefNo){\n    require(BidMap[_bidId].bidId!=_bidId,\"\");\n    _;\n    \n  }\n  \n  function checkBidPresence(uint _bidId)  returns (bool ){\n    if(BidMap[_bidId].bidId==_bidId)\n      return true;\n    else\n      return false;\n  }*/\n}\n/*\nFinal Fields while Bidding:\nBidderId\nTenderId\nItemID\nitemCost\nexperienceInField\nturnOver\n----->>>>\nAuto Generate Bid Id and Email it to Bidder also Show on UI in Applied Tenders\n*/",
  "sourcePath": "C:\\Users\\Admin\\Desktop\\nodeProject\\SIH Gail E-tendering\\contracts\\AcceptBid.sol",
  "compiler": {
    "name": "solc",
    "version": "0.5.1+commit.c8a2cb62.Emscripten.clang"
  },
  "schemaVersion": "3.2.3",
  "updatedAt": "2020-07-31T22:07:55.102Z",
  "networkType": "ethereum",
  "devdoc": {
    "methods": {}
  },
  "userdoc": {
    "methods": {}
  }
}