{
  "contractName": "ContractConfirmation",
  "abi": [
    {
      "constant": true,
      "inputs": [
        {
          "name": "",
          "type": "uint256"
        }
      ],
      "name": "Contracts",
      "outputs": [
        {
          "name": "",
          "type": "string"
        }
      ],
      "payable": false,
      "stateMutability": "view",
      "type": "function"
    },
    {
      "constant": true,
      "inputs": [],
      "name": "projectEngineer",
      "outputs": [
        {
          "name": "",
          "type": "address"
        }
      ],
      "payable": false,
      "stateMutability": "view",
      "type": "function"
    },
    {
      "inputs": [],
      "payable": false,
      "stateMutability": "nonpayable",
      "type": "constructor"
    },
    {
      "anonymous": false,
      "inputs": [
        {
          "indexed": false,
          "name": "contractNumber",
          "type": "string"
        },
        {
          "indexed": false,
          "name": "contractDate",
          "type": "uint256"
        },
        {
          "indexed": false,
          "name": "contractValue",
          "type": "uint256"
        },
        {
          "indexed": false,
          "name": "tenderRefNo",
          "type": "uint256"
        },
        {
          "indexed": false,
          "name": "bidId",
          "type": "uint256"
        }
      ],
      "name": "ContractConfirmed",
      "type": "event"
    },
    {
      "constant": false,
      "inputs": [
        {
          "name": "_contractNumber",
          "type": "string"
        },
        {
          "name": "_contractValue",
          "type": "uint256"
        },
        {
          "name": "_tenderRefNo",
          "type": "uint256"
        },
        {
          "name": "_bidId",
          "type": "uint256"
        }
      ],
      "name": "confirmContract",
      "outputs": [
        {
          "name": "",
          "type": "bool"
        }
      ],
      "payable": false,
      "stateMutability": "nonpayable",
      "type": "function"
    },
    {
      "constant": true,
      "inputs": [
        {
          "name": "_contractNumber",
          "type": "string"
        }
      ],
      "name": "viewConfirmedContract",
      "outputs": [
        {
          "name": "",
          "type": "string"
        },
        {
          "name": "",
          "type": "uint256"
        },
        {
          "name": "",
          "type": "uint256"
        },
        {
          "name": "",
          "type": "uint256"
        },
        {
          "name": "",
          "type": "uint256"
        },
        {
          "name": "",
          "type": "uint256"
        }
      ],
      "payable": false,
      "stateMutability": "view",
      "type": "function"
    },
    {
      "constant": true,
      "inputs": [],
      "name": "viewAllConfirmedContracts",
      "outputs": [
        {
          "name": "",
          "type": "string[]"
        }
      ],
      "payable": false,
      "stateMutability": "view",
      "type": "function"
    },
    {
      "constant": false,
      "inputs": [
        {
          "name": "_contractNumber",
          "type": "string"
        },
        {
          "name": "status",
          "type": "uint256"
        }
      ],
      "name": "updateStatusOfContract",
      "outputs": [
        {
          "name": "",
          "type": "bool"
        }
      ],
      "payable": true,
      "stateMutability": "payable",
      "type": "function"
    }
  ],
  "bytecode": "0x608060405234801561001057600080fd5b50336000806101000a81548173ffffffffffffffffffffffffffffffffffffffff021916908373ffffffffffffffffffffffffffffffffffffffff1602179055506114bd806100606000396000f3fe608060405260043610610072576000357c0100000000000000000000000000000000000000000000000000000000900480630d9f8fec1461007757806311b69dec146100b95780632c37c727146100f657806378766de0146101265780638a79550314610151578063ebafd2191461018e575b600080fd5b34801561008357600080fd5b5061009e60048036036100999190810190610efa565b6101b9565b6040516100b0969594939291906112a2565b60405180910390f35b3480156100c557600080fd5b506100e060048036036100db9190810190610f8f565b610527565b6040516100ed919061120b565b60405180910390f35b610110600480360361010b9190810190610f3b565b610926565b60405161011d919061120b565b60405180910390f35b34801561013257600080fd5b5061013b610b43565b60405161014891906111e9565b60405180910390f35b34801561015d57600080fd5b506101786004803603610173919081019061100a565b610c2c565b6040516101859190611226565b60405180910390f35b34801561019a57600080fd5b506101a3610ce7565b6040516101b091906111ce565b60405180910390f35b60606000806000806000806102486001896040518082805190602001908083835b6020831015156101ff57805182526020820191506020810190506020830392506101da565b6001836020036101000a038019825116818451168082178552505050505050905001915050908152602001604051809103902060030160009054906101000a900460ff16610d0c565b90506001886040518082805190602001908083835b602083101515610282578051825260208201915060208101905060208303925061025d565b6001836020036101000a03801982511681845116808217855250505050505090500191505090815260200160405180910390206000016001896040518082805190602001908083835b6020831015156102f057805182526020820191506020810190506020830392506102cb565b6001836020036101000a03801982511681845116808217855250505050505090500191505090815260200160405180910390206001015460018a6040518082805190602001908083835b60208310151561035f578051825260208201915060208101905060208303925061033a565b6001836020036101000a03801982511681845116808217855250505050505090500191505090815260200160405180910390206002015460018b6040518082805190602001908083835b6020831015156103ce57805182526020820191506020810190506020830392506103a9565b6001836020036101000a03801982511681845116808217855250505050505090500191505090815260200160405180910390206004015460018c6040518082805190602001908083835b60208310151561043d5780518252602082019150602081019050602083039250610418565b6001836020036101000a03801982511681845116808217855250505050505090500191505090815260200160405180910390206005015485858054600181600116156101000203166002900480601f01602080910402602001604051908101604052809291908181526020018280546001816001161561010002031660029004801561050a5780601f106104df5761010080835404028352916020019161050a565b820191906000526020600020905b8154815290600101906020018083116104ed57829003601f168201915b505050505095509650965096509650965096505091939550919395565b60008060009054906101000a900473ffffffffffffffffffffffffffffffffffffffff1673ffffffffffffffffffffffffffffffffffffffff163373ffffffffffffffffffffffffffffffffffffffff161415156105ba576040517f08c379a00000000000000000000000000000000000000000000000000000000081526004016105b19061130a565b60405180910390fd5b846001866040518082805190602001908083835b6020831015156105f357805182526020820191506020810190506020830392506105ce565b6001836020036101000a0380198251168184511680821785525050505050509050019150509081526020016040518091039020600001908051906020019061063c929190610deb565b50426001866040518082805190602001908083835b6020831015156106765780518252602082019150602081019050602083039250610651565b6001836020036101000a038019825116818451168082178552505050505050905001915050908152602001604051809103902060010181905550836001866040518082805190602001908083835b6020831015156106e957805182526020820191506020810190506020830392506106c4565b6001836020036101000a038019825116818451168082178552505050505050905001915050908152602001604051809103902060020181905550826001866040518082805190602001908083835b60208310151561075c5780518252602082019150602081019050602083039250610737565b6001836020036101000a038019825116818451168082178552505050505050905001915050908152602001604051809103902060040181905550816001866040518082805190602001908083835b6020831015156107cf57805182526020820191506020810190506020830392506107aa565b6001836020036101000a03801982511681845116808217855250505050505090500191505090815260200160405180910390206005018190555060006001866040518082805190602001908083835b602083101515610843578051825260208201915060208101905060208303925061081e565b6001836020036101000a038019825116818451168082178552505050505050905001915050908152602001604051809103902060030160006101000a81548160ff0219169083600281111561089457fe5b0217905550600160028690806001815401808255809150509060018203906000526020600020016000909192909190915090805190602001906108d8929190610deb565b5050507f09beb1143959df75e6bfba6aae0b98810f61ae67a65f39ab76cddb07b7c5854c8542868688604051610912959493929190611248565b60405180910390a160019050949350505050565b60008060009054906101000a900473ffffffffffffffffffffffffffffffffffffffff1673ffffffffffffffffffffffffffffffffffffffff163373ffffffffffffffffffffffffffffffffffffffff161415156109b9576040517f08c379a00000000000000000000000000000000000000000000000000000000081526004016109b09061130a565b60405180910390fd5b81600081101580156109cb5750600381105b1515610a0c576040517f08c379a0000000000000000000000000000000000000000000000000000000008152600401610a039061132a565b60405180910390fd5b610a906001856040518082805190602001908083835b602083101515610a475780518252602082019150602081019050602083039250610a22565b6001836020036101000a038019825116818451168082178552505050505050905001915050908152602001604051809103902060030160009054906101000a900460ff16610d0c565b831115610b3757610aa083610d67565b6001856040518082805190602001908083835b602083101515610ad85780518252602082019150602081019050602083039250610ab3565b6001836020036101000a038019825116818451168082178552505050505050905001915050908152602001604051809103902060030160006101000a81548160ff02191690836002811115610b2957fe5b021790555060019150610b3c565b600091505b5092915050565b60606002805480602002602001604051908101604052809291908181526020016000905b82821015610c23578382906000526020600020018054600181600116156101000203166002900480601f016020809104026020016040519081016040528092919081815260200182805460018160011615610100020316600290048015610c0f5780601f10610be457610100808354040283529160200191610c0f565b820191906000526020600020905b815481529060010190602001808311610bf257829003601f168201915b505050505081526020019060010190610b67565b50505050905090565b600281815481101515610c3b57fe5b906000526020600020016000915090508054600181600116156101000203166002900480601f016020809104026020016040519081016040528092919081815260200182805460018160011615610100020316600290048015610cdf5780601f10610cb457610100808354040283529160200191610cdf565b820191906000526020600020905b815481529060010190602001808311610cc257829003601f168201915b505050505081565b6000809054906101000a900473ffffffffffffffffffffffffffffffffffffffff1681565b6000806002811115610d1a57fe5b826002811115610d2657fe5b1415610d355760009050610d62565b60016002811115610d4257fe5b826002811115610d4e57fe5b1415610d5d5760019050610d62565b600290505b919050565b60008160008110158015610d7b5750600381105b1515610dbc576040517f08c379a0000000000000000000000000000000000000000000000000000000008152600401610db39061132a565b60405180910390fd5b6000831415610dce5760009150610de5565b6001831415610de05760019150610de5565b600291505b50919050565b828054600181600116156101000203166002900490600052602060002090601f016020900481019282601f10610e2c57805160ff1916838001178555610e5a565b82800160010185558215610e5a579182015b82811115610e59578251825591602001919060010190610e3e565b5b509050610e679190610e6b565b5090565b610e8d91905b80821115610e89576000816000905550600101610e71565b5090565b90565b600082601f8301121515610ea357600080fd5b8135610eb6610eb182611377565b61134a565b91508082526020830160208301858383011115610ed257600080fd5b610edd838284611430565b50505092915050565b6000610ef28235611426565b905092915050565b600060208284031215610f0c57600080fd5b600082013567ffffffffffffffff811115610f2657600080fd5b610f3284828501610e90565b91505092915050565b60008060408385031215610f4e57600080fd5b600083013567ffffffffffffffff811115610f6857600080fd5b610f7485828601610e90565b9250506020610f8585828601610ee6565b9150509250929050565b60008060008060808587031215610fa557600080fd5b600085013567ffffffffffffffff811115610fbf57600080fd5b610fcb87828801610e90565b9450506020610fdc87828801610ee6565b9350506040610fed87828801610ee6565b9250506060610ffe87828801610ee6565b91505092959194509250565b60006020828403121561101c57600080fd5b600061102a84828501610ee6565b91505092915050565b61103c816113de565b82525050565b600061104d826113b0565b80845260208401935083602082028501611066856113a3565b60005b8481101561109f5783830388526110818383516110f5565b925061108c826113d1565b9150602088019750600181019050611069565b508196508694505050505092915050565b6110b9816113f0565b82525050565b60006110ca826113c6565b8084526110de81602086016020860161143f565b6110e781611472565b602085010191505092915050565b6000611100826113bb565b80845261111481602086016020860161143f565b61111d81611472565b602085010191505092915050565b6000602482527f5065726d697373696f6e2044656e6965642028436f6e6669726d20436f6e747260208301527f61637429000000000000000000000000000000000000000000000000000000006040830152606082019050919050565b6000601782527f556e646566696e656420537461747573206e756d6265720000000000000000006020830152604082019050919050565b6111c88161141c565b82525050565b60006020820190506111e36000830184611033565b92915050565b600060208201905081810360008301526112038184611042565b905092915050565b600060208201905061122060008301846110b0565b92915050565b6000602082019050818103600083015261124081846110f5565b905092915050565b600060a082019050818103600083015261126281886110bf565b905061127160208301876111bf565b61127e60408301866111bf565b61128b60608301856111bf565b61129860808301846111bf565b9695505050505050565b600060c08201905081810360008301526112bc81896110bf565b90506112cb60208301886111bf565b6112d860408301876111bf565b6112e560608301866111bf565b6112f260808301856111bf565b6112ff60a08301846111bf565b979650505050505050565b600060208201905081810360008301526113238161112b565b9050919050565b6000602082019050818103600083015261134381611188565b9050919050565b6000604051905081810181811067ffffffffffffffff8211171561136d57600080fd5b8060405250919050565b600067ffffffffffffffff82111561138e57600080fd5b601f19601f8301169050602081019050919050565b6000602082019050919050565b600081519050919050565b600081519050919050565b600081519050919050565b6000602082019050919050565b60006113e9826113fc565b9050919050565b60008115159050919050565b600073ffffffffffffffffffffffffffffffffffffffff82169050919050565b6000819050919050565b6000819050919050565b82818337600083830152505050565b60005b8381101561145d578082015181840152602081019050611442565b8381111561146c576000848401525b50505050565b6000601f19601f830116905091905056fea265627a7a72305820c80b275682734a98867542c67befbcd97becf77f6bada6558c3253657fc3f5f86c6578706572696d656e74616cf50037",
  "source": "pragma solidity >= 0.5.0 < 0.7.0;\npragma experimental ABIEncoderV2;\nimport \"./IssueTender.sol\";\nimport \"./AcceptBid.sol\";\n\n\ncontract ContractConfirmation  {\n    \n    enum ContractStatus{\n        AWAITING_PAYMENT, //Assuming 1st instalment already send\n        AWAITING_DELIVERY, \n        PAYMENT_COMPLETED} //Completing 2nd instalment after acceptance at Store and QNA\n\n    //Owner of Contract\n    address public projectEngineer;\n    \n    struct ContractDetails{\n        \n        //Confirmed Contract Details\n        string contractNumber; //Unique identifier\n        uint contractDate; \n        uint  contractValue;\n        ContractStatus status;\n        \n        //TenderDetails\n        uint tenderRefNo;\n        //IssueTender.TenderDetails tenderdetails;\n          \n        //Bid Details\n        uint bidId;\n        //AcceptBid.BidDetails bidDetails;\n    }\n    \n    mapping(string => ContractDetails) ContractMap;\n    \n    string[] public Contracts;\n\n    event ContractConfirmed(string contractNumber, uint contractDate, uint contractValue, uint tenderRefNo, uint bidId);\n\n    constructor() public {\n        projectEngineer=msg.sender;\n    }\n    \n    function confirmContract(\n        string memory _contractNumber,\n        uint _contractValue,uint _tenderRefNo,uint _bidId\n        ) public onlyEngineer           //validBid(  _bidId )\n    returns (bool){\n        \n        ContractMap[_contractNumber].contractNumber=_contractNumber;\n        ContractMap[_contractNumber].contractDate=now;\n        ContractMap[_contractNumber].contractValue=_contractValue;\n        ContractMap[_contractNumber].tenderRefNo=_tenderRefNo;\n        ContractMap[_contractNumber].bidId=_bidId;\n        ContractMap[_contractNumber].status= ContractStatus.AWAITING_PAYMENT;\n        Contracts.push(_contractNumber)-1;\n        emit ContractConfirmed(_contractNumber,now,_contractValue,_tenderRefNo,_contractValue);\n        return true;\n    }\n    \n    function viewConfirmedContract( string memory _contractNumber) \n    public view returns( string memory, uint , uint ,uint , uint ,uint ){\n        uint status=statusToInt(ContractMap[_contractNumber].status);\n        return ( ContractMap[_contractNumber].contractNumber, ContractMap[_contractNumber].contractDate,\n                ContractMap[_contractNumber].contractValue, ContractMap[_contractNumber].tenderRefNo,\n                ContractMap[_contractNumber].bidId,status);\n    }\n    \n    function viewAllConfirmedContracts() public view returns (string[] memory){\n        return Contracts;\n    }\n    /*modifier validBid(uint _bidId){\n      require(AcceptBid.checkBidPresence(),\"Invalid Bid\");\n      _;\n    }*/\n\n    modifier onlyEngineer(){\n        require(msg.sender == projectEngineer, \"Permission Denied (Confirm Contract)\");\n        _;\n    }\nfunction updateStatusOfContract(string memory _contractNumber, uint status )public payable onlyEngineer checkValidSatus(status) returns (bool){\n    //------------------WRITE---------------\n    if(status > statusToInt(ContractMap[_contractNumber].status)){\n        ContractMap[_contractNumber].status= intToStatus(status);\n        return true;\n    }\n    return false;\n}\n\n\n function intToStatus(uint status) private pure checkValidSatus(status) returns(ContractStatus){\n        if(status==0){\n            return ContractStatus.AWAITING_PAYMENT;\n        }\n        else if(status == 1){\n            return ContractStatus.AWAITING_DELIVERY;\n        }\n        else{\n            return ContractStatus.PAYMENT_COMPLETED;\n        }\n    }\n    \n    function statusToInt(ContractStatus status) private pure returns (uint){\n        if(status == ContractStatus.AWAITING_PAYMENT){\n            return 0;\n        }\n        else  if(status == ContractStatus.AWAITING_DELIVERY){\n            return 1;\n        }\n        else // if(status == ContractStatus.PAYMENT_COMPLETED)\n        {\n            return 2;\n        }\n        \n    }\n    modifier checkValidSatus(uint status){\n        require(status>=0 && status<3,\"Undefined Status number\");\n        _;\n    }\n}\n\n",
  "sourcePath": "C:/Users/Admin/Desktop/nodeProject/SIH Gail E-tendering/contracts/ContractConfirmation.sol",
  "compiler": {
    "name": "solc",
    "version": "0.5.1+commit.c8a2cb62.Emscripten.clang"
  },
  "schemaVersion": "3.2.3",
  "updatedAt": "2020-08-02T03:26:03.252Z",
  "networkType": "ethereum",
  "devdoc": {
    "methods": {}
  },
  "userdoc": {
    "methods": {}
  }
}