{
  "contractName": "IssueTender",
  "abi": [
    {
      "constant": true,
      "inputs": [
        {
          "name": "",
          "type": "uint256"
        }
      ],
      "name": "Tenders",
      "outputs": [
        {
          "name": "",
          "type": "uint256"
        }
      ],
      "payable": false,
      "stateMutability": "view",
      "type": "function"
    },
    {
      "constant": true,
      "inputs": [],
      "name": "projectEngineer",
      "outputs": [
        {
          "name": "",
          "type": "address"
        }
      ],
      "payable": false,
      "stateMutability": "view",
      "type": "function"
    },
    {
      "inputs": [],
      "payable": false,
      "stateMutability": "nonpayable",
      "type": "constructor"
    },
    {
      "anonymous": false,
      "inputs": [
        {
          "indexed": false,
          "name": "_tenderRefNo",
          "type": "uint256"
        },
        {
          "indexed": false,
          "name": "_tenderName",
          "type": "string"
        },
        {
          "indexed": false,
          "name": "_tenderType",
          "type": "string"
        },
        {
          "indexed": false,
          "name": "_tenderCategory",
          "type": "string"
        },
        {
          "indexed": false,
          "name": "_bidSubmissionOpeningDate",
          "type": "uint256"
        },
        {
          "indexed": false,
          "name": "_bidSubmissionClosingDate",
          "type": "uint256"
        }
      ],
      "name": "TenderCreated",
      "type": "event"
    },
    {
      "constant": false,
      "inputs": [
        {
          "name": "_tenderRefNo",
          "type": "uint256"
        },
        {
          "name": "_tenderName",
          "type": "string"
        },
        {
          "name": "_tenderType",
          "type": "string"
        },
        {
          "name": "_tenderCategory",
          "type": "string"
        },
        {
          "name": "_bidSubmissionOpeningDate",
          "type": "uint256"
        },
        {
          "name": "_bidSubmissionClosingDate",
          "type": "uint256"
        }
      ],
      "name": "createTender",
      "outputs": [
        {
          "name": "",
          "type": "bool"
        }
      ],
      "payable": false,
      "stateMutability": "nonpayable",
      "type": "function"
    },
    {
      "constant": true,
      "inputs": [],
      "name": "viewTenders",
      "outputs": [
        {
          "name": "",
          "type": "uint256[]"
        }
      ],
      "payable": false,
      "stateMutability": "view",
      "type": "function"
    },
    {
      "constant": true,
      "inputs": [
        {
          "name": "_tenderRefNo",
          "type": "uint256"
        }
      ],
      "name": "viewTender",
      "outputs": [
        {
          "name": "referenceNo",
          "type": "uint256"
        },
        {
          "name": "tenderTitle",
          "type": "string"
        },
        {
          "name": "itemType",
          "type": "string"
        },
        {
          "name": "bidOpeningDate",
          "type": "uint256"
        },
        {
          "name": "closingDate",
          "type": "uint256"
        },
        {
          "name": "tenderStatus",
          "type": "uint256"
        }
      ],
      "payable": false,
      "stateMutability": "view",
      "type": "function"
    },
    {
      "constant": false,
      "inputs": [
        {
          "name": "_tenderRefNo",
          "type": "uint256"
        },
        {
          "name": "status",
          "type": "uint256"
        }
      ],
      "name": "updateStatus",
      "outputs": [
        {
          "name": "",
          "type": "bool"
        }
      ],
      "payable": true,
      "stateMutability": "payable",
      "type": "function"
    }
  ],
  "bytecode": "0x608060405234801561001057600080fd5b50336000806101000a81548173ffffffffffffffffffffffffffffffffffffffff021916908373ffffffffffffffffffffffffffffffffffffffff160217905550611071806100606000396000f3fe608060405260043610610072576000357c0100000000000000000000000000000000000000000000000000000000900480633734278f146100775780636213b93a146102a35780637e8c3fa2146103df578063ce82f3b11461042e578063e2f318291461049a578063ebafd219146104ea575b600080fd5b34801561008357600080fd5b50610289600480360360c081101561009a57600080fd5b8101908080359060200190929190803590602001906401000000008111156100c157600080fd5b8201836020820111156100d357600080fd5b803590602001918460018302840111640100000000831117156100f557600080fd5b91908080601f016020809104026020016040519081016040528093929190818152602001838380828437600081840152601f19601f8201169050808301925050505050505091929192908035906020019064010000000081111561015857600080fd5b82018360208201111561016a57600080fd5b8035906020019184600183028401116401000000008311171561018c57600080fd5b91908080601f016020809104026020016040519081016040528093929190818152602001838380828437600081840152601f19601f820116905080830192505050505050509192919290803590602001906401000000008111156101ef57600080fd5b82018360208201111561020157600080fd5b8035906020019184600183028401116401000000008311171561022357600080fd5b91908080601f016020809104026020016040519081016040528093929190818152602001838380828437600081840152601f19601f8201169050808301925050505050505091929192908035906020019092919080359060200190929190505050610541565b604051808215151515815260200191505060405180910390f35b3480156102af57600080fd5b506102dc600480360360208110156102c657600080fd5b8101908080359060200190929190505050610969565b604051808781526020018060200180602001868152602001858152602001848152602001838103835288818151815260200191508051906020019080838360005b8381101561033857808201518184015260208101905061031d565b50505050905090810190601f1680156103655780820380516001836020036101000a031916815260200191505b50838103825287818151815260200191508051906020019080838360005b8381101561039e578082015181840152602081019050610383565b50505050905090810190601f1680156103cb5780820380516001836020036101000a031916815260200191505b509850505050505050505060405180910390f35b3480156103eb57600080fd5b506104186004803603602081101561040257600080fd5b8101908080359060200190929190505050610bdc565b6040518082815260200191505060405180910390f35b34801561043a57600080fd5b50610443610bff565b6040518080602001828103825283818151815260200191508051906020019060200280838360005b8381101561048657808201518184015260208101905061046b565b505050509050019250505060405180910390f35b6104d0600480360360408110156104b057600080fd5b810190808035906020019092919080359060200190929190505050610c57565b604051808215151515815260200191505060405180910390f35b3480156104f657600080fd5b506104ff610e30565b604051808273ffffffffffffffffffffffffffffffffffffffff1673ffffffffffffffffffffffffffffffffffffffff16815260200191505060405180910390f35b60003373ffffffffffffffffffffffffffffffffffffffff166000809054906101000a900473ffffffffffffffffffffffffffffffffffffffff1673ffffffffffffffffffffffffffffffffffffffff16141515610607576040517f08c379a000000000000000000000000000000000000000000000000000000000815260040180806020018281038252600e8152602001807f4163636573732064656e6965642100000000000000000000000000000000000081525060200191505060405180910390fd5b8680600160008381526020019081526020016000206000015414151515610696576040517f08c379a00000000000000000000000000000000000000000000000000000000081526004018080602001828103825260168152602001807f54656e64657220416c72656164792050726573656e740000000000000000000081525060200191505060405180910390fd5b87600160008a81526020019081526020016000206000018190555086600160008a815260200190815260200160002060010190805190602001906106db929190610fa0565b5085600160008a81526020019081526020016000206002019080519060200190610706929190610fa0565b5084600160008a81526020019081526020016000206003019080519060200190610731929190610fa0565b5083600160008a81526020019081526020016000206004018190555082600160008a8152602001908152602001600020600501819055506000600160008a815260200190815260200160002060060160006101000a81548160ff0219169083600381111561079b57fe5b021790555060028890806001815401808255809150509060018203906000526020600020016000909192909190915055507f863778f4d434dab3a5498827806eea84a7f3c1df6872d8080004bc18e6a049da88888888888860405180878152602001806020018060200180602001868152602001858152602001848103845289818151815260200191508051906020019080838360005b8381101561084d578082015181840152602081019050610832565b50505050905090810190601f16801561087a5780820380516001836020036101000a031916815260200191505b50848103835288818151815260200191508051906020019080838360005b838110156108b3578082015181840152602081019050610898565b50505050905090810190601f1680156108e05780820380516001836020036101000a031916815260200191505b50848103825287818151815260200191508051906020019080838360005b838110156109195780820151818401526020810190506108fe565b50505050905090810190601f1680156109465780820380516001836020036101000a031916815260200191505b50995050505050505050505060405180910390a160019150509695505050505050565b6000606080600080600086806001600083815260200190815260200160002060000154141515610a01576040517f08c379a00000000000000000000000000000000000000000000000000000000081526004018080602001828103825260128152602001807f54656e646572204e6f742050726573656e74000000000000000000000000000081525060200191505060405180910390fd5b6000610a2f600160008b815260200190815260200160002060060160009054906101000a900460ff16610e55565b905088600160008b8152602001908152602001600020600101600160008c8152602001908152602001600020600201600160008d815260200190815260200160002060040154600160008e81526020019081526020016000206005015485848054600181600116156101000203166002900480601f016020809104026020016040519081016040528092919081815260200182805460018160011615610100020316600290048015610b225780601f10610af757610100808354040283529160200191610b22565b820191906000526020600020905b815481529060010190602001808311610b0557829003601f168201915b50505050509450838054600181600116156101000203166002900480601f016020809104026020016040519081016040528092919081815260200182805460018160011615610100020316600290048015610bbe5780601f10610b9357610100808354040283529160200191610bbe565b820191906000526020600020905b815481529060010190602001808311610ba157829003601f168201915b50505050509350975097509750975097509750505091939550919395565b600281815481101515610beb57fe5b906000526020600020016000915090505481565b60606002805480602002602001604051908101604052809291908181526020018280548015610c4d57602002820191906000526020600020905b815481526020019060010190808311610c39575b5050505050905090565b60003373ffffffffffffffffffffffffffffffffffffffff166000809054906101000a900473ffffffffffffffffffffffffffffffffffffffff1673ffffffffffffffffffffffffffffffffffffffff16141515610d1d576040517f08c379a000000000000000000000000000000000000000000000000000000000815260040180806020018281038252600e8152602001807f4163636573732064656e6965642100000000000000000000000000000000000081525060200191505060405180910390fd5b81600081118015610d2e5750600481105b1515610da2576040517f08c379a00000000000000000000000000000000000000000000000000000000081526004018080602001828103825260178152602001807f556e646566696e656420537461747573206e756d62657200000000000000000081525060200191505060405180910390fd5b6000610dd06001600087815260200190815260200160002060060160009054906101000a900460ff16610e55565b905080841115610e2357610de384610ed8565b6001600087815260200190815260200160002060060160006101000a81548160ff02191690836003811115610e1457fe5b02179055506001925050610e29565b60009250505b5092915050565b6000809054906101000a900473ffffffffffffffffffffffffffffffffffffffff1681565b6000806003811115610e6357fe5b826003811115610e6f57fe5b1415610e7e5760009050610ed3565b60016003811115610e8b57fe5b826003811115610e9757fe5b1415610ea65760019050610ed3565b60026003811115610eb357fe5b826003811115610ebf57fe5b1415610ece5760029050610ed3565b600390505b919050565b600081600081118015610eeb5750600481105b1515610f5f576040517f08c379a00000000000000000000000000000000000000000000000000000000081526004018080602001828103825260178152602001807f556e646566696e656420537461747573206e756d62657200000000000000000081525060200191505060405180910390fd5b6000831415610f715760009150610f9a565b6001831415610f835760019150610f9a565b6002831415610f955760029150610f9a565b600391505b50919050565b828054600181600116156101000203166002900490600052602060002090601f016020900481019282601f10610fe157805160ff191683800117855561100f565b8280016001018555821561100f579182015b8281111561100e578251825591602001919060010190610ff3565b5b50905061101c9190611020565b5090565b61104291905b8082111561103e576000816000905550600101611026565b5090565b9056fea165627a7a72305820a0c7863c1f3a8168e14f2a09543d3657e04c0d41ab012fc7883c33a36affc1f10029",
  "source": "pragma solidity >= 0.5.0 <0.7.0;\n//pragma solidity ABIEncoderV2;\n\ncontract IssueTender {\n    //declare owner of SC\n    address public projectEngineer;\n\n    enum TenderStatus{ ACTIVE,AWARDED, CLOSED, RETENDERED}\n    //fields Tender specific\n     struct  TenderDetails{\n         \n        //unique Identifier for Tender\n        uint tenderRefNo;\n        string tenderName;\n        string tenderType;\n        string tenderCategory;\n        uint bidSubmissionOpeningDate;\n        uint bidSubmissionClosingDate;\n        TenderStatus tenderStatus;\n        \n  \t}\n\n    mapping (uint => TenderDetails) TenderMapped;\n\n    uint[] public Tenders;\n     event TenderCreated(uint _tenderRefNo,string  _tenderName, string  _tenderType,string  _tenderCategory, uint _bidSubmissionOpeningDate,uint _bidSubmissionClosingDate);\n    constructor () public {\n        //assign owner\n        projectEngineer = msg.sender;\n    }\n\n    //function to create Tender\n    function createTender(\n        uint _tenderRefNo,string memory _tenderName,\n        string memory _tenderType,string memory _tenderCategory,\n        uint _bidSubmissionOpeningDate,uint _bidSubmissionClosingDate ) public onlyEngineer notPresent(_tenderRefNo)\n\t\treturns (bool){\n\n        \n\t\t//TenderMapped[_tenderRefNo] = TenderMapped(_tenderRefNo, _tenderName, _tenderType, _tenderCategory, now, _bidSubmissionClosingDate);\n\t\t\tTenderMapped[_tenderRefNo].tenderRefNo = _tenderRefNo;\n\t\t\tTenderMapped[_tenderRefNo].tenderName = _tenderName;\n\t\t\tTenderMapped[_tenderRefNo].tenderType = _tenderType;\n\t\t\tTenderMapped[_tenderRefNo].tenderCategory = _tenderCategory;\n\t\t\tTenderMapped[_tenderRefNo].bidSubmissionOpeningDate = _bidSubmissionOpeningDate;\n\t\t\tTenderMapped[_tenderRefNo].bidSubmissionClosingDate = _bidSubmissionClosingDate;\n\t\t\tTenderMapped[_tenderRefNo].tenderStatus=TenderStatus.ACTIVE;\n\t\t\tTenders.push(_tenderRefNo);\n\t\t\temit TenderCreated(_tenderRefNo,_tenderName,_tenderType,_tenderCategory,_bidSubmissionOpeningDate,_bidSubmissionClosingDate);\n\t\t\treturn true;\n\t\n      }\n    \n    function intToStatus(uint status) private pure checkValidSatus(status) returns(TenderStatus){\n        if(status==0){\n            return TenderStatus.ACTIVE;\n        }\n        else if(status == 1){\n            return TenderStatus.AWARDED;\n        }\n        else if(status == 2){\n            return TenderStatus.CLOSED;\n        }\n        else{\n            return TenderStatus.RETENDERED;\n        }\n    }\n    \n    function statusToInt(TenderStatus status) private pure returns (uint){\n        if(status == TenderStatus.ACTIVE){\n            return 0;\n        }\n        else  if(status == TenderStatus.AWARDED){\n            return 1;\n        }\n        else  if(status == TenderStatus.CLOSED){\n            return 2;\n        }\n        else{\n            return 3;\n        }\n    }\n    \n    //function to view all tenders\n    function viewTenders() public view returns ( uint[] memory){\n        //allow everyone to view\n        return Tenders;\n    }\n    \n    //function to view tenders\n    function viewTender( uint _tenderRefNo) public view CheckPresence(_tenderRefNo)\n\treturns( uint referenceNo,\n    string memory tenderTitle,string memory itemType ,//string memory,\n    uint bidOpeningDate , uint closingDate,\n\tuint tenderStatus){\n        \n        uint status = statusToInt(TenderMapped[_tenderRefNo].tenderStatus);\n        //allow everyone to view\n        return (_tenderRefNo, \n\t\tTenderMapped[_tenderRefNo].tenderName,\n        TenderMapped[_tenderRefNo].tenderType,\n\t\t//TenderMapped[_tenderRefNo].tenderCategory,\n        TenderMapped[_tenderRefNo].bidSubmissionOpeningDate,\n        //---------------------ERROOOORRRRR CompilerError: Stack too deep, try removing local variables.-----\n        TenderMapped[_tenderRefNo].bidSubmissionClosingDate,\n        status);\n\t}  \n\n    \n    function updateStatus(uint _tenderRefNo, uint status) public onlyEngineer checkValidSatus(status) payable returns (bool) {\n        \n        uint current= statusToInt( TenderMapped[_tenderRefNo].tenderStatus );\n        \n        if(status>current){\n            TenderMapped[_tenderRefNo].tenderStatus = intToStatus(status);\n            return true;\n        }\n        return false;\n    \n    }\n    \n    modifier checkValidSatus(uint status){\n        require(status>0 && status<4,\"Undefined Status number\");\n        _;\n    }\n    \n\tmodifier notPresent(uint _tenderRefNo){\n        require(TenderMapped[_tenderRefNo].tenderRefNo!=_tenderRefNo,\"Tender Already Present\"); _;\n    }\n    //modifier to restrict Tender Creation\n    modifier onlyEngineer(){\n    \trequire(projectEngineer==msg.sender,\"Access denied!\");\n    \t_;\n    }\n\tmodifier CheckPresence(uint _tenderRefNo){\n\t\trequire(TenderMapped[_tenderRefNo].tenderRefNo==_tenderRefNo,\"Tender Not Present\");\n\t\t_;\n\t}\n\t\t\n}/*\n\ncompile\n./node_modules/.bin/truffle develop\nmigrate\nIssueTender.deployed().then( function(instance){ issue = instance; })\nweb3.eth.getAccounts().then(function(res) { accounts = res; } )\nissue.createTender(\"1\",\"fvdfG\",\"rfrf\",\"rfre\",\"11\",\"23\",{from : accounts[0]})\n\n\"compiler\":{\"version\":\"0.5.16+commit.9c3226ce\"},\"language\":\"Solidity\",\"output\":{\"abi\":[{\"inputs\":[],\"payable\":false,\"stateMutability\":\"nonpayable\",\"type\":\"constructor\"},{\"constant\":true,\"inputs\":[{\"internalType\":\"uint256\",\"name\":\"\",\"type\":\"uint256\"}],\"name\":\"Tenders\",\"outputs\":[{\"internalType\":\"uint256\",\"name\":\"\",\"type\":\"uint256\"}],\"payable\":false,\"stateMutability\":\"view\",\"type\":\"function\"},{\"constant\":false,\"inputs\":[{\"internalType\":\"uint256\",\"name\":\"_tenderRefNo\",\"type\":\"uint256\"},{\"internalType\":\"string\",\"name\":\"_tenderName\",\"type\":\"string\"},{\"internalType\":\"string\",\"name\":\"_tenderType\",\"type\":\"string\"},{\"internalType\":\"string\",\"name\":\"_tenderCategory\",\"type\":\"string\"},{\"internalType\":\"uint256\",\"name\":\"_bidSubmissionOpeningDate\",\"type\":\"uint256\"},{\"internalType\":\"uint256\",\"name\":\"_bidSubmissionClosingDate\",\"type\":\"uint256\"}],\"name\":\"createTender\",\"outputs\":[{\"internalType\":\"bool\",\"name\":\"\",\"type\":\"bool\"}],\"payable\":false,\"stateMutability\":\"nonpayable\",\"type\":\"function\"},{\"constant\":true,\"inputs\":[],\"name\":\"projectEngineer\",\"outputs\":[{\"internalType\":\"address\",\"name\":\"\",\"type\":\"address\"}],\"payable\":false,\"stateMutability\":\"view\",\"type\":\"function\"},{\"constant\":true,\"inputs\":[{\"internalType\":\"uint256\",\"name\":\"_tenderRefNo\",\"type\":\"uint256\"}],\"name\":\"viewTender\",\"outputs\":[{\"internalType\":\"uint256\",\"name\":\"\",\"type\":\"uint256\"},{\"internalType\":\"string\",\"name\":\"\",\"type\":\"string\"},{\"internalType\":\"string\",\"name\":\"\",\"type\":\"string\"},{\"internalType\":\"string\",\"name\":\"\",\"type\":\"string\"},{\"internalType\":\"uint256\",\"name\":\"\",\"type\":\"uint256\"},{\"internalType\":\"uint256\",\"name\":\"\",\"type\":\"uint256\"}],\"payable\":false,\"stateMutability\":\"view\",\"type\":\"function\"},{\"constant\":true,\"inputs\":[],\"name\":\"viewTenders\",\"outputs\":[{\"internalType\":\"uint256[]\",\"name\":\"\",\"type\":\"uint256[]\"}],\"payable\":false,\"stateMutability\":\"view\",\"type\":\"function\"}],\"devdoc\":{\"methods\":{}},\"userdoc\":{\"methods\":{}}},\"settings\":{\"compilationTarget\":{\"/Users/Ajit/Desktop/Demo1/contracts/IssueTender.sol\":\"IssueTender\"},\"evmVersion\":\"istanbul\",\"libraries\":{},\"optimizer\":{\"enabled\":false,\"runs\":200},\"remappings\":[]},\"sources\":{\"/Users/Ajit/Desktop/Demo1/contracts/IssueTender.sol\":{\"keccak256\":\"0x31aae36de479a844ab4beca6542401f6a13e4616b3a37e5b23058e438af301d1\",\"urls\":[\"bzz-raw://768afb81853d46157652537d57a728c909f2d072b385acbc10f00589755e91b6\",\"dweb:/ipfs/QmZqftBRh42koEWiCE8KBdXbcT9z5JdxHxBeGeYMWTw5Jx\"]}},\"version\":1}\n\n*/",
  "sourcePath": "C:\\Users\\Admin\\Desktop\\nodeProject\\SIH Gail E-tendering\\contracts\\IssueTender.sol",
  "compiler": {
    "name": "solc",
    "version": "0.5.1+commit.c8a2cb62.Emscripten.clang"
  },
  "schemaVersion": "3.2.3",
  "updatedAt": "2020-08-02T03:26:03.235Z",
  "networkType": "ethereum",
  "devdoc": {
    "methods": {}
  },
  "userdoc": {
    "methods": {}
  }
}