{
  "contractName": "PaymentLog",
  "abi": [
    {
      "constant": true,
      "inputs": [],
      "name": "wallet",
      "outputs": [
        {
          "name": "",
          "type": "address"
        }
      ],
      "payable": false,
      "stateMutability": "view",
      "type": "function"
    },
    {
      "constant": true,
      "inputs": [
        {
          "name": "",
          "type": "uint256"
        }
      ],
      "name": "AllPayments",
      "outputs": [
        {
          "name": "",
          "type": "string"
        }
      ],
      "payable": false,
      "stateMutability": "view",
      "type": "function"
    },
    {
      "inputs": [],
      "payable": false,
      "stateMutability": "nonpayable",
      "type": "constructor"
    },
    {
      "constant": false,
      "inputs": [
        {
          "name": "_contractId",
          "type": "string"
        },
        {
          "name": "_bidderId",
          "type": "uint256"
        },
        {
          "name": "_sender",
          "type": "address"
        },
        {
          "name": "_receiver",
          "type": "address"
        },
        {
          "name": "payAmount",
          "type": "uint256"
        },
        {
          "name": "_amount",
          "type": "uint256"
        }
      ],
      "name": "createPaymentEntryOne",
      "outputs": [
        {
          "name": "",
          "type": "bool"
        }
      ],
      "payable": false,
      "stateMutability": "nonpayable",
      "type": "function"
    },
    {
      "constant": false,
      "inputs": [
        {
          "name": "_contractId",
          "type": "string"
        },
        {
          "name": "payAmount",
          "type": "uint256"
        }
      ],
      "name": "createPaymentEntryTwo",
      "outputs": [
        {
          "name": "",
          "type": "bool"
        }
      ],
      "payable": false,
      "stateMutability": "nonpayable",
      "type": "function"
    },
    {
      "constant": true,
      "inputs": [
        {
          "name": "_contractId",
          "type": "string"
        }
      ],
      "name": "getBasicPaymentDetails",
      "outputs": [
        {
          "name": "contractId",
          "type": "string"
        },
        {
          "name": "bidderId",
          "type": "uint256"
        },
        {
          "name": "amountPaid",
          "type": "uint256"
        },
        {
          "name": "amountDue",
          "type": "uint256"
        },
        {
          "name": "instalmentsCompleted",
          "type": "uint256"
        }
      ],
      "payable": false,
      "stateMutability": "view",
      "type": "function"
    },
    {
      "constant": true,
      "inputs": [],
      "name": "viewContractIds",
      "outputs": [
        {
          "name": "",
          "type": "string[]"
        }
      ],
      "payable": false,
      "stateMutability": "view",
      "type": "function"
    },
    {
      "constant": true,
      "inputs": [
        {
          "name": "_contractId",
          "type": "string"
        },
        {
          "name": "_instalmentNumber",
          "type": "uint256"
        }
      ],
      "name": "viewContractPayment",
      "outputs": [
        {
          "name": "contractId",
          "type": "string"
        },
        {
          "name": "bidderId",
          "type": "uint256"
        },
        {
          "name": "instalmentsCompleted",
          "type": "uint256"
        },
        {
          "name": "amountPaid",
          "type": "uint256"
        },
        {
          "name": "amountDue",
          "type": "uint256"
        },
        {
          "name": "paymentDate",
          "type": "uint256"
        }
      ],
      "payable": false,
      "stateMutability": "view",
      "type": "function"
    },
    {
      "constant": false,
      "inputs": [
        {
          "name": "receiver",
          "type": "address"
        },
        {
          "name": "_amount",
          "type": "uint256"
        }
      ],
      "name": "transferEth",
      "outputs": [
        {
          "name": "",
          "type": "bool"
        }
      ],
      "payable": true,
      "stateMutability": "payable",
      "type": "function"
    }
  ],
  "bytecode": "0x608060405234801561001057600080fd5b50336000806101000a81548173ffffffffffffffffffffffffffffffffffffffff021916908373ffffffffffffffffffffffffffffffffffffffff160217905550612244806100606000396000f3fe608060405260043610610088576000357c010000000000000000000000000000000000000000000000000000000090048063092010c11461008d578063435b7082146100ca578063521eb2731461010757806359628aff146101325780637224c43814610174578063a9549c11146101b5578063e9bb84c2146101e0578063ee1d51e414610210575b600080fd5b34801561009957600080fd5b506100b460048036036100af9190810190611bc7565b61024d565b6040516100c19190611f0e565b60405180910390f35b3480156100d657600080fd5b506100f160048036036100ec9190810190611b73565b6108cd565b6040516100fe9190611f0e565b60405180910390f35b34801561011357600080fd5b5061011c610d90565b6040516101299190611ed1565b60405180910390f35b34801561013e57600080fd5b5061015960048036036101549190810190611b73565b610db5565b60405161016b96959493929190611fa5565b60405180910390f35b34801561018057600080fd5b5061019b60048036036101969190810190611b32565b61153e565b6040516101ac959493929190611f4b565b60405180910390f35b3480156101c157600080fd5b506101ca6117c8565b6040516101d79190611eec565b60405180910390f35b6101fa60048036036101f59190810190611af6565b6118b1565b6040516102079190611f0e565b60405180910390f35b34801561021c57600080fd5b5061023760048036036102329190810190611c68565b611904565b6040516102449190611f29565b60405180910390f35b60008060009054906101000a900473ffffffffffffffffffffffffffffffffffffffff1673ffffffffffffffffffffffffffffffffffffffff163373ffffffffffffffffffffffffffffffffffffffff161415156102e0576040517f08c379a00000000000000000000000000000000000000000000000000000000081526004016102d79061202d565b60405180910390fd5b868660006002836040518082805190602001908083835b60208310151561031c57805182526020820191506020810190506020830392506102f7565b6001836020036101000a038019825116818451168082178552505050505050905001915050908152602001604051809103902054141515610392576040517f08c379a00000000000000000000000000000000000000000000000000000000081526004016103899061200d565b60405180910390fd5b8860018a6040518082805190602001908083835b6020831015156103cb57805182526020820191506020810190506020830392506103a6565b6001836020036101000a038019825116818451168082178552505050505050905001915050908152602001604051809103902060000190805190602001906104149291906119bf565b508760018a6040518082805190602001908083835b60208310151561044e5780518252602082019150602081019050602083039250610429565b6001836020036101000a0380198251168184511680821785525050505050509050019150509081526020016040518091039020600101819055508660018a6040518082805190602001908083835b6020831015156104c1578051825260208201915060208101905060208303925061049c565b6001836020036101000a038019825116818451168082178552505050505050905001915050908152602001604051809103902060020160006101000a81548173ffffffffffffffffffffffffffffffffffffffff021916908373ffffffffffffffffffffffffffffffffffffffff1602179055508560018a6040518082805190602001908083835b60208310151561056e5780518252602082019150602081019050602083039250610549565b6001836020036101000a038019825116818451168082178552505050505050905001915050908152602001604051809103902060030160006101000a81548173ffffffffffffffffffffffffffffffffffffffff021916908373ffffffffffffffffffffffffffffffffffffffff1602179055508460018a6040518082805190602001908083835b60208310151561061b57805182526020820191506020810190506020830392506105f6565b6001836020036101000a03801982511681845116808217855250505050505090500191505090815260200160405180910390206004018190555084840360018a6040518082805190602001908083835b602083101515610690578051825260208201915060208101905060208303925061066b565b6001836020036101000a0380198251168184511680821785525050505050509050019150509081526020016040518091039020600501819055506080604051908101604052806001815260200186815260200186860381526020014281525060018a6040518082805190602001908083835b6020831015156107275780518252602082019150602081019050602083039250610702565b6001836020036101000a0380198251168184511680821785525050505050509050019150509081526020016040518091039020600701600060018152602001908152602001600020600082015181600001556020820151816001015560408201518160020155606082015181600301559050506001808a6040518082805190602001908083835b6020831015156107d357805182526020820191506020810190506020830392506107ae565b6001836020036101000a038019825116818451168082178552505050505050905001915050908152602001604051809103902060060181905550600160028a6040518082805190602001908083835b6020831015156108475780518252602082019150602081019050602083039250610822565b6001836020036101000a03801982511681845116808217855250505050505090500191505090815260200160405180910390208190555060038990806001815401808255809150509060018203906000526020600020016000909192909190915090805190602001906108bb9291906119bf565b50506001925050509695505050505050565b60008060009054906101000a900473ffffffffffffffffffffffffffffffffffffffff1673ffffffffffffffffffffffffffffffffffffffff163373ffffffffffffffffffffffffffffffffffffffff16141515610960576040517f08c379a00000000000000000000000000000000000000000000000000000000081526004016109579061202d565b60405180910390fd5b8260016002826040518082805190602001908083835b60208310151561099b5780518252602082019150602081019050602083039250610976565b6001836020036101000a038019825116818451168082178552505050505050905001915050908152602001604051809103902054141515610a11576040517f08c379a0000000000000000000000000000000000000000000000000000000008152600401610a089061206d565b60405180910390fd5b60806040519081016040528060028152602001848152602001846001876040518082805190602001908083835b602083101515610a635780518252602082019150602081019050602083039250610a3e565b6001836020036101000a038019825116818451168082178552505050505050905001915050908152602001604051809103902060050154038152602001428152506001856040518082805190602001908083835b602083101515610adc5780518252602082019150602081019050602083039250610ab7565b6001836020036101000a038019825116818451168082178552505050505050905001915050908152602001604051809103902060070160006002815260200190815260200160002060008201518160000155602082015181600101556040820151816002015560608201518160030155905050826001856040518082805190602001908083835b602083101515610b885780518252602082019150602081019050602083039250610b63565b6001836020036101000a038019825116818451168082178552505050505050905001915050908152602001604051809103902060040154016001856040518082805190602001908083835b602083101515610bf85780518252602082019150602081019050602083039250610bd3565b6001836020036101000a038019825116818451168082178552505050505050905001915050908152602001604051809103902060040181905550826001856040518082805190602001908083835b602083101515610c6b5780518252602082019150602081019050602083039250610c46565b6001836020036101000a038019825116818451168082178552505050505050905001915050908152602001604051809103902060050154036001856040518082805190602001908083835b602083101515610cdb5780518252602082019150602081019050602083039250610cb6565b6001836020036101000a03801982511681845116808217855250505050505090500191505090815260200160405180910390206005018190555060026001856040518082805190602001908083835b602083101515610d4f5780518252602082019150602081019050602083039250610d2a565b6001836020036101000a0380198251168184511680821785525050505050509050019150509081526020016040518091039020600601819055505092915050565b6000809054906101000a900473ffffffffffffffffffffffffffffffffffffffff1681565b6060600080600080600087876001811415610e7f5760016002836040518082805190602001908083835b602083101515610e045780518252602082019150602081019050602083039250610ddf565b6001836020036101000a038019825116818451168082178552505050505050905001915050908152602001604051809103902054141515610e7a576040517f08c379a0000000000000000000000000000000000000000000000000000000008152600401610e719061206d565b60405180910390fd5b610fed565b6002811415610fec5760016002836040518082805190602001908083835b602083101515610ec25780518252602082019150602081019050602083039250610e9d565b6001836020036101000a038019825116818451168082178552505050505050905001915050908152602001604051809103902054141515610f38576040517f08c379a0000000000000000000000000000000000000000000000000000000008152600401610f2f9061206d565b60405180910390fd5b60026001836040518082805190602001908083835b602083101515610f725780518252602082019150602081019050602083039250610f4d565b6001836020036101000a038019825116818451168082178552505050505050905001915050908152602001604051809103902060060154141515610feb576040517f08c379a0000000000000000000000000000000000000000000000000000000008152600401610fe29061208d565b60405180910390fd5b5b5b6001891415611272578960018b6040518082805190602001908083835b60208310151561102f578051825260208201915060208101905060208303925061100a565b6001836020036101000a03801982511681845116808217855250505050505090500191505090815260200160405180910390206001015460018c6040518082805190602001908083835b60208310151561109e5780518252602082019150602081019050602083039250611079565b6001836020036101000a03801982511681845116808217855250505050505090500191505090815260200160405180910390206006015460018d6040518082805190602001908083835b60208310151561110d57805182526020820191506020810190506020830392506110e8565b6001836020036101000a03801982511681845116808217855250505050505090500191505090815260200160405180910390206007016000600181526020019081526020016000206001015460018e6040518082805190602001908083835b602083101515611191578051825260208201915060208101905060208303925061116c565b6001836020036101000a03801982511681845116808217855250505050505090500191505090815260200160405180910390206007016000600181526020019081526020016000206002015460018f6040518082805190602001908083835b60208310151561121557805182526020820191506020810190506020830392506111f0565b6001836020036101000a038019825116818451168082178552505050505050905001915050908152602001604051809103902060070160006001815260200190815260200160002060030154975097509750975097509750611532565b60028914156114f7578960018b6040518082805190602001908083835b6020831015156112b4578051825260208201915060208101905060208303925061128f565b6001836020036101000a03801982511681845116808217855250505050505090500191505090815260200160405180910390206001015460018c6040518082805190602001908083835b60208310151561132357805182526020820191506020810190506020830392506112fe565b6001836020036101000a03801982511681845116808217855250505050505090500191505090815260200160405180910390206006015460018d6040518082805190602001908083835b602083101515611392578051825260208201915060208101905060208303925061136d565b6001836020036101000a03801982511681845116808217855250505050505090500191505090815260200160405180910390206007016000600281526020019081526020016000206001015460018e6040518082805190602001908083835b60208310151561141657805182526020820191506020810190506020830392506113f1565b6001836020036101000a03801982511681845116808217855250505050505090500191505090815260200160405180910390206007016000600281526020019081526020016000206002015460018f6040518082805190602001908083835b60208310151561149a5780518252602082019150602081019050602083039250611475565b6001836020036101000a038019825116818451168082178552505050505050905001915050908152602001604051809103902060070160006002815260200190815260200160002060030154975097509750975097509750611532565b6040517f08c379a00000000000000000000000000000000000000000000000000000000081526004016115299061204d565b60405180910390fd5b50509295509295509295565b60606000806000808560016002826040518082805190602001908083835b602083101515611581578051825260208201915060208101905060208303925061155c565b6001836020036101000a0380198251168184511680821785525050505050509050019150509081526020016040518091039020541415156115f7576040517f08c379a00000000000000000000000000000000000000000000000000000000081526004016115ee9061206d565b60405180910390fd5b866001886040518082805190602001908083835b602083101515611630578051825260208201915060208101905060208303925061160b565b6001836020036101000a0380198251168184511680821785525050505050509050019150509081526020016040518091039020600101546001896040518082805190602001908083835b60208310151561169f578051825260208201915060208101905060208303925061167a565b6001836020036101000a03801982511681845116808217855250505050505090500191505090815260200160405180910390206004015460018a6040518082805190602001908083835b60208310151561170e57805182526020820191506020810190506020830392506116e9565b6001836020036101000a03801982511681845116808217855250505050505090500191505090815260200160405180910390206005015460018b6040518082805190602001908083835b60208310151561177d5780518252602082019150602081019050602083039250611758565b6001836020036101000a038019825116818451168082178552505050505050905001915050908152602001604051809103902060060154955095509550955095505091939590929450565b60606003805480602002602001604051908101604052809291908181526020016000905b828210156118a8578382906000526020600020018054600181600116156101000203166002900480601f0160208091040260200160405190810160405280929190818152602001828054600181600116156101000203166002900480156118945780601f1061186957610100808354040283529160200191611894565b820191906000526020600020905b81548152906001019060200180831161187757829003601f168201915b5050505050815260200190600101906117ec565b50505050905090565b60008273ffffffffffffffffffffffffffffffffffffffff166108fc839081150290604051600060405180830381858888f193505050501580156118f9573d6000803e3d6000fd5b506001905092915050565b60038181548110151561191357fe5b906000526020600020016000915090508054600181600116156101000203166002900480601f0160208091040260200160405190810160405280929190818152602001828054600181600116156101000203166002900480156119b75780601f1061198c576101008083540402835291602001916119b7565b820191906000526020600020905b81548152906001019060200180831161199a57829003601f168201915b505050505081565b828054600181600116156101000203166002900490600052602060002090601f016020900481019282601f10611a0057805160ff1916838001178555611a2e565b82800160010185558215611a2e579182015b82811115611a2d578251825591602001919060010190611a12565b5b509050611a3b9190611a3f565b5090565b611a6191905b80821115611a5d576000816000905550600101611a45565b5090565b90565b6000611a708235612189565b905092915050565b6000611a84823561219b565b905092915050565b600082601f8301121515611a9f57600080fd5b8135611ab2611aad826120da565b6120ad565b91508082526020830160208301858383011115611ace57600080fd5b611ad98382846121b7565b50505092915050565b6000611aee82356121ad565b905092915050565b60008060408385031215611b0957600080fd5b6000611b1785828601611a78565b9250506020611b2885828601611ae2565b9150509250929050565b600060208284031215611b4457600080fd5b600082013567ffffffffffffffff811115611b5e57600080fd5b611b6a84828501611a8c565b91505092915050565b60008060408385031215611b8657600080fd5b600083013567ffffffffffffffff811115611ba057600080fd5b611bac85828601611a8c565b9250506020611bbd85828601611ae2565b9150509250929050565b60008060008060008060c08789031215611be057600080fd5b600087013567ffffffffffffffff811115611bfa57600080fd5b611c0689828a01611a8c565b9650506020611c1789828a01611ae2565b9550506040611c2889828a01611a64565b9450506060611c3989828a01611a64565b9350506080611c4a89828a01611ae2565b92505060a0611c5b89828a01611ae2565b9150509295509295509295565b600060208284031215611c7a57600080fd5b6000611c8884828501611ae2565b91505092915050565b611c9a81612141565b82525050565b6000611cab82612113565b80845260208401935083602082028501611cc485612106565b60005b84811015611cfd578383038852611cdf838351611d53565b9250611cea82612134565b9150602088019750600181019050611cc7565b508196508694505050505092915050565b611d1781612153565b82525050565b6000611d2882612129565b808452611d3c8160208601602086016121c6565b611d45816121f9565b602085010191505092915050565b6000611d5e8261211e565b808452611d728160208601602086016121c6565b611d7b816121f9565b602085010191505092915050565b6000601782527f436f6e747261637420416c7265616479204578697374730000000000000000006020830152604082019050919050565b6000600d82527f4163636573732044656e696564000000000000000000000000000000000000006020830152604082019050919050565b6000601a82527f4f6e6c79203220496e7374616c6d656e7420416c6c6f776564210000000000006020830152604082019050919050565b6000602382527f436f6e7472616374205061796d656e74204f6e6520446f6573206e6f7420457860208301527f69737400000000000000000000000000000000000000000000000000000000006040830152606082019050919050565b6000601d82527f496e7374616c6c6d656e74203220646f6573206e6f74206578697374730000006020830152604082019050919050565b611ecb8161217f565b82525050565b6000602082019050611ee66000830184611c91565b92915050565b60006020820190508181036000830152611f068184611ca0565b905092915050565b6000602082019050611f236000830184611d0e565b92915050565b60006020820190508181036000830152611f438184611d53565b905092915050565b600060a0820190508181036000830152611f658188611d1d565b9050611f746020830187611ec2565b611f816040830186611ec2565b611f8e6060830185611ec2565b611f9b6080830184611ec2565b9695505050505050565b600060c0820190508181036000830152611fbf8189611d1d565b9050611fce6020830188611ec2565b611fdb6040830187611ec2565b611fe86060830186611ec2565b611ff56080830185611ec2565b61200260a0830184611ec2565b979650505050505050565b6000602082019050818103600083015261202681611d89565b9050919050565b6000602082019050818103600083015261204681611dc0565b9050919050565b6000602082019050818103600083015261206681611df7565b9050919050565b6000602082019050818103600083015261208681611e2e565b9050919050565b600060208201905081810360008301526120a681611e8b565b9050919050565b6000604051905081810181811067ffffffffffffffff821117156120d057600080fd5b8060405250919050565b600067ffffffffffffffff8211156120f157600080fd5b601f19601f8301169050602081019050919050565b6000602082019050919050565b600081519050919050565b600081519050919050565b600081519050919050565b6000602082019050919050565b600061214c8261215f565b9050919050565b60008115159050919050565b600073ffffffffffffffffffffffffffffffffffffffff82169050919050565b6000819050919050565b60006121948261215f565b9050919050565b60006121a68261215f565b9050919050565b6000819050919050565b82818337600083830152505050565b60005b838110156121e45780820151818401526020810190506121c9565b838111156121f3576000848401525b50505050565b6000601f19601f830116905091905056fea265627a7a72305820792beb91f034ac358f5fa0c2a96f3987a1125408585e51f7de2e829e888449f56c6578706572696d656e74616cf50037",
  "source": "pragma solidity ^0.5.1;\npragma experimental ABIEncoderV2;\n contract PaymentLog{\n    \n \taddress payable public wallet;\n\n \t//----------------Definitions for Contract related Payments----------------\n \tstruct PaymentInfo{\n \t\tuint installmentNumber;\n \t\tuint amountPaid;\n \t\tuint amountDue;\n \t\tuint paymentDate;\n \t}\n    struct ContractPayment{\n     \tstring contractId;//bidding id\n     \tuint bidderId;\n     \taddress sender;\n     \taddress receiver;\n     \tuint amountPaid;\n     \tuint amountDue;\n        uint instalmentsCompleted;\n     \tmapping(uint => PaymentInfo) paymentLog;\n     }\n\n     //identify using contractID\n     mapping(string => ContractPayment) private InstalmentPaymentMap;\n    mapping(string => uint )internal contractIdExists;\n     // Array of Payments\n     //contractid array\n     string[] public AllPayments;\n\n     //--------------------------------\n     constructor()public{\n       wallet=msg.sender;  \n     }\n    modifier onlyOwnerOfWallet(){ \t\trequire(msg.sender==wallet,\"Access Denied\"); _;\t\t\t}\n    modifier onlyNewContract(string memory _contractId,uint _bidderId){ \n        require(contractIdExists[_contractId]==0,\"Contract Already Exists\"); \n        _;\t\t\t\n    }\n    //---------------Change-------------\n    modifier ifInstalmentOneExists(string memory _contractId){\n        require(contractIdExists[_contractId]==1,\"Contract Payment One Does not Exist\"); \n        _;\n    }\n    modifier ifInstalmentTwoExists( string memory _contractId, uint _instalmentNumber){\n        if(_instalmentNumber==1){\n            require(contractIdExists[_contractId]==1,\"Contract Payment One Does not Exist\"); \n        }\n        else if(_instalmentNumber==2){\n            require(contractIdExists[_contractId]==1,\"Contract Payment One Does not Exist\"); \n            require(InstalmentPaymentMap[_contractId].instalmentsCompleted==2,\"Installment 2 does not exists\");\n        }\n        _;\n    }\n\n//trans.transferEth(\"0xa3b40bfb7a1af8608df24fef3b1e445796acb624\",\"1\",{value:100000000}).then(()=>{console.log()})\n     function createPaymentEntryOne(string memory _contractId,uint _bidderId, address _sender, address  _receiver,\n      uint payAmount, uint _amount) public onlyOwnerOfWallet onlyNewContract(_contractId,_bidderId) returns (bool){\n\n     \t\tInstalmentPaymentMap[_contractId].contractId=_contractId;\n\t     \tInstalmentPaymentMap[_contractId].bidderId=_bidderId;\n\t     \tInstalmentPaymentMap[_contractId].sender=_sender;\n\t     \tInstalmentPaymentMap[_contractId].receiver=_receiver;\n\t     \tInstalmentPaymentMap[_contractId].amountPaid=payAmount;\n\t     \tInstalmentPaymentMap[_contractId].amountDue=_amount-payAmount;\n     \t\tInstalmentPaymentMap[_contractId].paymentLog[1]= PaymentInfo(1,payAmount,_amount-payAmount,now);\n            InstalmentPaymentMap[_contractId].instalmentsCompleted=1;\n            contractIdExists[_contractId]=1;\n            AllPayments.push(_contractId);\n     \t\treturn true;\n     }\n    function createPaymentEntryTwo(string memory _contractId,uint payAmount) public onlyOwnerOfWallet\n    ifInstalmentOneExists(_contractId) returns (bool)\n    {\n            InstalmentPaymentMap[_contractId].paymentLog[2]= PaymentInfo(2,payAmount,InstalmentPaymentMap[_contractId].amountDue-payAmount,now);\n            InstalmentPaymentMap[_contractId].amountPaid=InstalmentPaymentMap[_contractId].amountPaid+payAmount;\n            InstalmentPaymentMap[_contractId].amountDue=InstalmentPaymentMap[_contractId].amountDue-payAmount;\n            InstalmentPaymentMap[_contractId].instalmentsCompleted=2;\n    }\n\n    function getBasicPaymentDetails(string memory _contractId) public view ifInstalmentOneExists(_contractId)\n    returns (string memory contractId, uint bidderId, uint amountPaid,uint amountDue,uint instalmentsCompleted)\n    {\n        return (_contractId,\n            InstalmentPaymentMap[_contractId].bidderId,\n            InstalmentPaymentMap[_contractId].amountPaid,\n            InstalmentPaymentMap[_contractId].amountDue,\n            InstalmentPaymentMap[_contractId].instalmentsCompleted);\n    }\n    function viewContractIds() public view returns(string[] memory){\n        return AllPayments;\n    }\n\n    function viewContractPayment(string memory _contractId, uint _instalmentNumber) public view \n        ifInstalmentTwoExists(_contractId,_instalmentNumber)\n    returns(string memory  contractId,uint bidderId,uint instalmentsCompleted, uint amountPaid,uint amountDue,uint paymentDate){\n        if(_instalmentNumber==1){\n            return (_contractId,\n            InstalmentPaymentMap[_contractId].bidderId,\n            InstalmentPaymentMap[_contractId].instalmentsCompleted,\n            InstalmentPaymentMap[_contractId].paymentLog[1].amountPaid,\n            InstalmentPaymentMap[_contractId].paymentLog[1].amountDue,\n            InstalmentPaymentMap[_contractId].paymentLog[1].paymentDate);\n        }\n        else if(_instalmentNumber==2){\n             return (_contractId,\n            InstalmentPaymentMap[_contractId].bidderId,\n            InstalmentPaymentMap[_contractId].instalmentsCompleted,\n            InstalmentPaymentMap[_contractId].paymentLog[2].amountPaid,\n            InstalmentPaymentMap[_contractId].paymentLog[2].amountDue,\n            InstalmentPaymentMap[_contractId].paymentLog[2].paymentDate);\n        }\n        else{\n            revert(\"Only 2 Instalment Allowed!\");\n        }\n    }\n     \n     function transferEth(address payable receiver,uint _amount) public payable returns(bool){\n         receiver.transfer(_amount);\n         return true;\n     }\n }\n /*\nTransfer.deployed().then((res)=>{ transfer = res; })\n\nTransfer using web3 or transferEth function and call below functions\n\ntransfer.createPaymentEntryOne(\"c3\",\"1\",\"0xa3b40bfb7a1af8608df24fef3b1e445796acb624\",\"0x0e4844954f980d2d40c7e7b2181ecc5e5a8a9446\",\"30\",\"100\")\n\ntransfer.getBasicPaymentDetails(\"c3\")\n\ntransfer.viewContractPayment(\"c3\",\"1\")\n\ntransfer.createPaymentEntryTwo(\"c3\",\"50\")\n\ntransfer.viewContractPayment(\"c3\",\"2\")\n\n\ntransfer.viewContractIds()\n */",
  "sourcePath": "C:/Users/Admin/Desktop/nodeProject/SIH Gail E-tendering/contracts/PaymentLog.sol",
  "compiler": {
    "name": "solc",
    "version": "0.5.1+commit.c8a2cb62.Emscripten.clang"
  },
  "schemaVersion": "3.2.3",
  "updatedAt": "2020-08-03T02:43:01.851Z",
  "networkType": "ethereum",
  "devdoc": {
    "methods": {}
  },
  "userdoc": {
    "methods": {}
  }
}