{
  "contractName": "QA",
  "abi": [
    {
      "constant": true,
      "inputs": [],
      "name": "QualityAssuranceOfficer",
      "outputs": [
        {
          "name": "",
          "type": "address"
        }
      ],
      "payable": false,
      "stateMutability": "view",
      "type": "function"
    },
    {
      "constant": true,
      "inputs": [
        {
          "name": "",
          "type": "uint256"
        }
      ],
      "name": "AllQNA",
      "outputs": [
        {
          "name": "",
          "type": "string"
        }
      ],
      "payable": false,
      "stateMutability": "view",
      "type": "function"
    },
    {
      "inputs": [],
      "payable": false,
      "stateMutability": "nonpayable",
      "type": "constructor"
    },
    {
      "constant": false,
      "inputs": [
        {
          "name": "_contractId",
          "type": "string"
        },
        {
          "name": "_tenderRefNum",
          "type": "uint256"
        },
        {
          "name": "_contractAppovalDate",
          "type": "uint256"
        },
        {
          "name": "_value",
          "type": "uint256"
        },
        {
          "name": "_vendor",
          "type": "string"
        },
        {
          "name": "_scheduledDeliveryDate",
          "type": "uint256"
        },
        {
          "name": "_actualDeliverDate",
          "type": "uint256"
        },
        {
          "name": "_DeliveryPerformance",
          "type": "uint256"
        },
        {
          "name": "_QualityPerformance",
          "type": "uint256"
        },
        {
          "name": "_ReliabilityPerformance",
          "type": "uint256"
        }
      ],
      "name": "addQNA",
      "outputs": [
        {
          "name": "",
          "type": "bool"
        }
      ],
      "payable": false,
      "stateMutability": "nonpayable",
      "type": "function"
    },
    {
      "constant": true,
      "inputs": [],
      "name": "getAllQNAKeys",
      "outputs": [
        {
          "name": "",
          "type": "string[]"
        }
      ],
      "payable": false,
      "stateMutability": "view",
      "type": "function"
    },
    {
      "constant": true,
      "inputs": [
        {
          "name": "_contractId",
          "type": "string"
        }
      ],
      "name": "getBasicQNA",
      "outputs": [
        {
          "name": "",
          "type": "string"
        },
        {
          "name": "",
          "type": "uint256"
        },
        {
          "name": "",
          "type": "uint256"
        },
        {
          "name": "",
          "type": "uint256"
        },
        {
          "name": "",
          "type": "string"
        },
        {
          "name": "",
          "type": "uint256"
        },
        {
          "name": "",
          "type": "string"
        }
      ],
      "payable": false,
      "stateMutability": "view",
      "type": "function"
    }
  ],
  "bytecode": "0x608060405234801561001057600080fd5b50336000806101000a81548173ffffffffffffffffffffffffffffffffffffffff021916908373ffffffffffffffffffffffffffffffffffffffff1602179055506114a1806100606000396000f3fe608060405260043610610067576000357c0100000000000000000000000000000000000000000000000000000000900480631e5e78081461006c57806363678f1014610097578063ac87d0b9146100c2578063ad599e53146100ff578063c30d229814610142575b600080fd5b34801561007857600080fd5b5061008161017f565b60405161008e919061120b565b60405180910390f35b3480156100a357600080fd5b506100ac610268565b6040516100b991906111f0565b60405180910390f35b3480156100ce57600080fd5b506100e960048036036100e49190810190610f47565b61028d565b6040516100f6919061122d565b60405180910390f35b34801561010b57600080fd5b5061012660048036036101219190810190610f06565b61076b565b604051610139979695949392919061126a565b60405180910390f35b34801561014e57600080fd5b5061016960048036036101649190810190611052565b610b6e565b6040516101769190611248565b60405180910390f35b60606003805480602002602001604051908101604052809291908181526020016000905b8282101561025f578382906000526020600020018054600181600116156101000203166002900480601f01602080910402602001604051908101604052809291908181526020018280546001816001161561010002031660029004801561024b5780601f106102205761010080835404028352916020019161024b565b820191906000526020600020905b81548152906001019060200180831161022e57829003601f168201915b5050505050815260200190600101906101a3565b50505050905090565b6000809054906101000a900473ffffffffffffffffffffffffffffffffffffffff1681565b60008060009054906101000a900473ffffffffffffffffffffffffffffffffffffffff1673ffffffffffffffffffffffffffffffffffffffff163373ffffffffffffffffffffffffffffffffffffffff16141515610320576040517f08c379a0000000000000000000000000000000000000000000000000000000008152600401610317906112ee565b60405180910390fd5b8a60006001826040518082805190602001908083835b60208310151561035b5780518252602082019150602081019050602083039250610336565b6001836020036101000a0380198251168184511680821785525050505050509050019150509081526020016040518091039020541415156103d1576040517f08c379a00000000000000000000000000000000000000000000000000000000081526004016103c89061130e565b60405180910390fd5b6080604051908101604052808c81526020018b81526020018a81526020018981525060028d6040518082805190602001908083835b60208310151561042b5780518252602082019150602081019050602083039250610406565b6001836020036101000a0380198251168184511680821785525050505050509050019150509081526020016040518091039020600101600082015181600001556020820151816001015560408201518160020155606082015181600301908051906020019061049b929190610d77565b5090505060408051908101604052808881526020018781525060028d6040518082805190602001908083835b6020831015156104ec57805182526020820191506020810190506020830392506104c7565b6001836020036101000a03801982511681845116808217855250505050505090500191505090815260200160405180910390206005016000820151816000015560208201518160010155905050828486010160028d6040518082805190602001908083835b6020831015156105765780518252602082019150602081019050602083039250610551565b6001836020036101000a03801982511681845116808217855250505050505090500191505090815260200160405180910390206007018190555061062760028d6040518082805190602001908083835b6020831015156105eb57805182526020820191506020810190506020830392506105c6565b6001836020036101000a038019825116818451168082178552505050505050905001915050908152602001604051809103902060070154610c29565b60028d6040518082805190602001908083835b60208310151561065f578051825260208201915060208101905060208303925061063a565b6001836020036101000a038019825116818451168082178552505050505050905001915050908152602001604051809103902060080190805190602001906106a8929190610df7565b506001808d6040518082805190602001908083835b6020831015156106e257805182526020820191506020810190506020830392506106bd565b6001836020036101000a03801982511681845116808217855250505050505090500191505090815260200160405180910390208190555060038c9080600181540180825580915050906001820390600052602060002001600090919290919091509080519060200190610756929190610df7565b505060019150509a9950505050505050505050565b60606000806000606060006060876002896040518082805190602001908083835b6020831015156107b1578051825260208201915060208101905060208303925061078c565b6001836020036101000a03801982511681845116808217855250505050505090500191505090815260200160405180910390206001016000015460028a6040518082805190602001908083835b60208310151561082357805182526020820191506020810190506020830392506107fe565b6001836020036101000a03801982511681845116808217855250505050505090500191505090815260200160405180910390206005016001015460028b6040518082805190602001908083835b6020831015156108955780518252602082019150602081019050602083039250610870565b6001836020036101000a03801982511681845116808217855250505050505090500191505090815260200160405180910390206001016002015460028c6040518082805190602001908083835b60208310151561090757805182526020820191506020810190506020830392506108e2565b6001836020036101000a038019825116818451168082178552505050505050905001915050908152602001604051809103902060010160030160028d6040518082805190602001908083835b6020831015156109785780518252602082019150602081019050602083039250610953565b6001836020036101000a03801982511681845116808217855250505050505090500191505090815260200160405180910390206007015460028e6040518082805190602001908083835b6020831015156109e757805182526020820191506020810190506020830392506109c2565b6001836020036101000a0380198251168184511680821785525050505050509050019150509081526020016040518091039020600801828054600181600116156101000203166002900480601f016020809104026020016040519081016040528092919081815260200182805460018160011615610100020316600290048015610ab25780601f10610a8757610100808354040283529160200191610ab2565b820191906000526020600020905b815481529060010190602001808311610a9557829003601f168201915b50505050509250808054600181600116156101000203166002900480601f016020809104026020016040519081016040528092919081815260200182805460018160011615610100020316600290048015610b4e5780601f10610b2357610100808354040283529160200191610b4e565b820191906000526020600020905b815481529060010190602001808311610b3157829003601f168201915b505050505090509650965096509650965096509650919395979092949650565b600381815481101515610b7d57fe5b906000526020600020016000915090508054600181600116156101000203166002900480601f016020809104026020016040519081016040528092919081815260200182805460018160011615610100020316600290048015610c215780601f10610bf657610100808354040283529160200191610c21565b820191906000526020600020905b815481529060010190602001808311610c0457829003601f168201915b505050505081565b606080603c83111515610c73576040805190810160405280600481526020017f504f4f52000000000000000000000000000000000000000000000000000000008152509050610d6e565b603d8310158015610c855750604b8311155b15610cc7576040805190810160405280600481526020017f46414952000000000000000000000000000000000000000000000000000000008152509050610d6d565b604c8310158015610cd95750605a8311155b15610d1b576040805190810160405280600481526020017f474f4f44000000000000000000000000000000000000000000000000000000008152509050610d6c565b605b8310158015610d2d575060648311155b15610d6b576040805190810160405280600881526020017f56455259474f4f4400000000000000000000000000000000000000000000000081525090505b5b5b5b80915050919050565b828054600181600116156101000203166002900490600052602060002090601f016020900481019282601f10610db857805160ff1916838001178555610de6565b82800160010185558215610de6579182015b82811115610de5578251825591602001919060010190610dca565b5b509050610df39190610e77565b5090565b828054600181600116156101000203166002900490600052602060002090601f016020900481019282601f10610e3857805160ff1916838001178555610e66565b82800160010185558215610e66579182015b82811115610e65578251825591602001919060010190610e4a565b5b509050610e739190610e77565b5090565b610e9991905b80821115610e95576000816000905550600101610e7d565b5090565b90565b600082601f8301121515610eaf57600080fd5b8135610ec2610ebd8261135b565b61132e565b91508082526020830160208301858383011115610ede57600080fd5b610ee9838284611414565b50505092915050565b6000610efe823561140a565b905092915050565b600060208284031215610f1857600080fd5b600082013567ffffffffffffffff811115610f3257600080fd5b610f3e84828501610e9c565b91505092915050565b6000806000806000806000806000806101408b8d031215610f6757600080fd5b60008b013567ffffffffffffffff811115610f8157600080fd5b610f8d8d828e01610e9c565b9a50506020610f9e8d828e01610ef2565b9950506040610faf8d828e01610ef2565b9850506060610fc08d828e01610ef2565b97505060808b013567ffffffffffffffff811115610fdd57600080fd5b610fe98d828e01610e9c565b96505060a0610ffa8d828e01610ef2565b95505060c061100b8d828e01610ef2565b94505060e061101c8d828e01610ef2565b93505061010061102e8d828e01610ef2565b9250506101206110408d828e01610ef2565b9150509295989b9194979a5092959850565b60006020828403121561106457600080fd5b600061107284828501610ef2565b91505092915050565b611084816113c2565b82525050565b600061109582611394565b808452602084019350836020820285016110ae85611387565b60005b848110156110e75783830388526110c983835161113d565b92506110d4826113b5565b91506020880197506001810190506110b1565b508196508694505050505092915050565b611101816113d4565b82525050565b6000611112826113aa565b808452611126816020860160208601611423565b61112f81611456565b602085010191505092915050565b60006111488261139f565b80845261115c816020860160208601611423565b61116581611456565b602085010191505092915050565b6000600e82527f4e6f7420417574686f72697a65640000000000000000000000000000000000006020830152604082019050919050565b6000601482527f456e74727920616c7265616479204578697374730000000000000000000000006020830152604082019050919050565b6111ea81611400565b82525050565b6000602082019050611205600083018461107b565b92915050565b60006020820190508181036000830152611225818461108a565b905092915050565b600060208201905061124260008301846110f8565b92915050565b60006020820190508181036000830152611262818461113d565b905092915050565b600060e0820190508181036000830152611284818a611107565b905061129360208301896111e1565b6112a060408301886111e1565b6112ad60608301876111e1565b81810360808301526112bf8186611107565b90506112ce60a08301856111e1565b81810360c08301526112e08184611107565b905098975050505050505050565b6000602082019050818103600083015261130781611173565b9050919050565b60006020820190508181036000830152611327816111aa565b9050919050565b6000604051905081810181811067ffffffffffffffff8211171561135157600080fd5b8060405250919050565b600067ffffffffffffffff82111561137257600080fd5b601f19601f8301169050602081019050919050565b6000602082019050919050565b600081519050919050565b600081519050919050565b600081519050919050565b6000602082019050919050565b60006113cd826113e0565b9050919050565b60008115159050919050565b600073ffffffffffffffffffffffffffffffffffffffff82169050919050565b6000819050919050565b6000819050919050565b82818337600083830152505050565b60005b83811015611441578082015181840152602081019050611426565b83811115611450576000848401525b50505050565b6000601f19601f830116905091905056fea265627a7a72305820977d8f28fe431ef58ee523ced089dc27ec9bedd477769dba32069c447ba855866c6578706572696d656e74616cf50037",
  "source": "pragma solidity >=0.4.0 <0.7.0;\npragma experimental ABIEncoderV2;\ncontract QA{\n    address public QualityAssuranceOfficer;\n    struct tenderDetails{\n        uint tenderRefNum;\n        uint contractApprovalDate; \n        uint value;//value\n        string vendor;//Vendor name\n    }\n    struct deliveryDetails{\n        uint scheduledDeliveryDate ;\n        uint actualDeliverDate;\n    }\n    struct QNADetails{\n        string contractId;\n        tenderDetails td;\n        deliveryDetails dd;\n        uint total;\n        string result;\n    }\n    mapping (string => uint ) internal controlContractIds;\n    mapping (string => QNADetails) QNAMaps;\n    string[] public  AllQNA;\n    \n     constructor () public {\n         QualityAssuranceOfficer=msg.sender;\n     }\n    \n    function addQNA(\n        string memory _contractId, uint _tenderRefNum , //string memory _nodalCenter,\n        uint _contractAppovalDate,//string memory _description, \n        uint _value, string memory _vendor,\n        uint  _scheduledDeliveryDate, uint _actualDeliverDate,\n        uint256 _DeliveryPerformance, uint256 _QualityPerformance, uint256 _ReliabilityPerformance\n        )public  onlyQualityEngineer() contractDoesNotExists(_contractId)  returns (bool){\n        \n        QNAMaps[_contractId].td = tenderDetails( _tenderRefNum, _contractAppovalDate, _value, _vendor);\n        QNAMaps[_contractId].dd = deliveryDetails(_scheduledDeliveryDate,_actualDeliverDate);\n        QNAMaps[_contractId].total=  _DeliveryPerformance + _QualityPerformance + _ReliabilityPerformance;\n        QNAMaps[_contractId].result = getperformance(QNAMaps[_contractId].total);\n        controlContractIds[_contractId]=1;\n        AllQNA.push(_contractId);\n        \n        return true;\n    }\n    \n\n    modifier onlyQualityEngineer(){\n        require(msg.sender == QualityAssuranceOfficer,\"Not Authorized\"); _;\n    }\n    modifier contractDoesNotExists(string memory _contractId){\n        require(controlContractIds[_contractId]==0,\"Entry already Exists\");\n         _;\n    }\n\n    function getAllQNAKeys() public view returns(string[] memory){\n        return AllQNA;\n    }\n  \n   function getBasicQNA(string memory _contractId) public view returns(string memory, uint ,\n   uint,uint, string memory, uint, string memory){\n       \n       return (_contractId,QNAMaps[_contractId].td.tenderRefNum,\n       QNAMaps[_contractId].dd.actualDeliverDate, QNAMaps[_contractId].td.value,\n       QNAMaps[_contractId].td.vendor,QNAMaps[_contractId].total,QNAMaps[_contractId].result);\n       \n   }\n  \n   function getperformance(uint total) private pure returns(string memory) {\n         string memory result;\n        if(total <= 60){\n                 result = \"POOR\";\n              } else if( total >= 61 && total <= 75 ){\n                 result = \"FAIR\";\n              } else if( total >= 76 && total <= 90 ){\n                 result = \"GOOD\";\n              } else if( total >= 91 && total <= 100 ){\n                 result = \"VERYGOOD\";\n        }\n        return result;\n    }\n}",
  "sourcePath": "C:/Users/Admin/Desktop/nodeProject/SIH Gail E-tendering/contracts/QA.sol",
  "compiler": {
    "name": "solc",
    "version": "0.5.1+commit.c8a2cb62.Emscripten.clang"
  },
  "schemaVersion": "3.2.3",
  "updatedAt": "2020-08-03T09:11:30.962Z",
  "networkType": "ethereum",
  "devdoc": {
    "methods": {}
  },
  "userdoc": {
    "methods": {}
  }
}