{
  "contractName": "shipmentContract",
  "abi": [
    {
      "inputs": [],
      "payable": true,
      "stateMutability": "payable",
      "type": "constructor"
    },
    {
      "anonymous": false,
      "inputs": [
        {
          "indexed": false,
          "name": "message",
          "type": "string"
        }
      ],
      "name": "Message",
      "type": "event"
    },
    {
      "anonymous": false,
      "inputs": [
        {
          "indexed": false,
          "name": "_message",
          "type": "string"
        },
        {
          "indexed": false,
          "name": "trackingno",
          "type": "string"
        },
        {
          "indexed": false,
          "name": "_sender",
          "type": "address"
        },
        {
          "indexed": false,
          "name": "location",
          "type": "string"
        }
      ],
      "name": "Shipped",
      "type": "event"
    },
    {
      "constant": true,
      "inputs": [
        {
          "name": "_tag",
          "type": "string"
        }
      ],
      "name": "getProduct",
      "outputs": [
        {
          "name": "",
          "type": "address"
        },
        {
          "name": "",
          "type": "string"
        },
        {
          "name": "",
          "type": "uint256"
        },
        {
          "name": "",
          "type": "string"
        },
        {
          "name": "",
          "type": "string"
        }
      ],
      "payable": false,
      "stateMutability": "view",
      "type": "function"
    },
    {
      "constant": false,
      "inputs": [
        {
          "name": "_asset",
          "type": "string"
        },
        {
          "name": "trackingNo",
          "type": "string"
        },
        {
          "name": "_destination",
          "type": "string"
        },
        {
          "name": "_quantity",
          "type": "uint256"
        },
        {
          "name": "_reciever",
          "type": "address"
        }
      ],
      "name": "sendShipment",
      "outputs": [
        {
          "name": "",
          "type": "bool"
        }
      ],
      "payable": false,
      "stateMutability": "nonpayable",
      "type": "function"
    },
    {
      "constant": false,
      "inputs": [
        {
          "name": "_location",
          "type": "string"
        },
        {
          "name": "_quantity",
          "type": "uint256"
        },
        {
          "name": "_receiverAddess",
          "type": "address"
        },
        {
          "name": "_asset",
          "type": "string"
        }
      ],
      "name": "setconditions",
      "outputs": [],
      "payable": false,
      "stateMutability": "nonpayable",
      "type": "function"
    },
    {
      "constant": false,
      "inputs": [
        {
          "name": "_location",
          "type": "string"
        },
        {
          "name": "_quantity",
          "type": "uint256"
        },
        {
          "name": "_asset",
          "type": "string"
        },
        {
          "name": "trackingNo",
          "type": "string"
        }
      ],
      "name": "getshipment",
      "outputs": [
        {
          "name": "",
          "type": "bool"
        }
      ],
      "payable": false,
      "stateMutability": "nonpayable",
      "type": "function"
    },
    {
      "constant": true,
      "inputs": [
        {
          "name": "_trackingNo",
          "type": "string"
        }
      ],
      "name": "showProvenance",
      "outputs": [
        {
          "name": "",
          "type": "string"
        },
        {
          "name": "",
          "type": "string"
        },
        {
          "name": "",
          "type": "address"
        },
        {
          "name": "",
          "type": "address"
        },
        {
          "name": "",
          "type": "address"
        },
        {
          "name": "",
          "type": "string"
        }
      ],
      "payable": false,
      "stateMutability": "view",
      "type": "function"
    }
  ],
  "bytecode": "0x6080604052336000806101000a81548173ffffffffffffffffffffffffffffffffffffffff021916908373ffffffffffffffffffffffffffffffffffffffff16021790555034600660008060009054906101000a900473ffffffffffffffffffffffffffffffffffffffff1673ffffffffffffffffffffffffffffffffffffffff1673ffffffffffffffffffffffffffffffffffffffff168152602001908152602001600020819055506120be806100b86000396000f3fe608060405260043610610067576000357c0100000000000000000000000000000000000000000000000000000000900480630f8b8fab1461006c578063428cb34a146101f557806368111cce1461042d578063a9ee5b2714610680578063c1f9c6e114610932575b600080fd5b34801561007857600080fd5b506101f36004803603608081101561008f57600080fd5b81019080803590602001906401000000008111156100ac57600080fd5b8201836020820111156100be57600080fd5b803590602001918460018302840111640100000000831117156100e057600080fd5b91908080601f016020809104026020016040519081016040528093929190818152602001838380828437600081840152601f19601f82011690508083019250505050505050919291929080359060200190929190803573ffffffffffffffffffffffffffffffffffffffff1690602001909291908035906020019064010000000081111561016d57600080fd5b82018360208201111561017f57600080fd5b803590602001918460018302840111640100000000831117156101a157600080fd5b91908080601f016020809104026020016040519081016040528093929190818152602001838380828437600081840152601f19601f820116905080830192505050505050509192919290505050610b4a565b005b34801561020157600080fd5b50610413600480360360a081101561021857600080fd5b810190808035906020019064010000000081111561023557600080fd5b82018360208201111561024757600080fd5b8035906020019184600183028401116401000000008311171561026957600080fd5b91908080601f016020809104026020016040519081016040528093929190818152602001838380828437600081840152601f19601f820116905080830192505050505050509192919290803590602001906401000000008111156102cc57600080fd5b8201836020820111156102de57600080fd5b8035906020019184600183028401116401000000008311171561030057600080fd5b91908080601f016020809104026020016040519081016040528093929190818152602001838380828437600081840152601f19601f8201169050808301925050505050505091929192908035906020019064010000000081111561036357600080fd5b82018360208201111561037557600080fd5b8035906020019184600183028401116401000000008311171561039757600080fd5b91908080601f016020809104026020016040519081016040528093929190818152602001838380828437600081840152601f19601f82011690508083019250505050505050919291929080359060200190929190803573ffffffffffffffffffffffffffffffffffffffff169060200190929190505050610c2e565b604051808215151515815260200191505060405180910390f35b34801561043957600080fd5b506104f36004803603602081101561045057600080fd5b810190808035906020019064010000000081111561046d57600080fd5b82018360208201111561047f57600080fd5b803590602001918460018302840111640100000000831117156104a157600080fd5b91908080601f016020809104026020016040519081016040528093929190818152602001838380828437600081840152601f19601f820116905080830192505050505050509192919290505050611269565b604051808673ffffffffffffffffffffffffffffffffffffffff1673ffffffffffffffffffffffffffffffffffffffff168152602001806020018581526020018060200180602001848103845288818151815260200191508051906020019080838360005b83811015610573578082015181840152602081019050610558565b50505050905090810190601f1680156105a05780820380516001836020036101000a031916815260200191505b50848103835286818151815260200191508051906020019080838360005b838110156105d95780820151818401526020810190506105be565b50505050905090810190601f1680156106065780820380516001836020036101000a031916815260200191505b50848103825285818151815260200191508051906020019080838360005b8381101561063f578082015181840152602081019050610624565b50505050905090810190601f16801561066c5780820380516001836020036101000a031916815260200191505b509850505050505050505060405180910390f35b34801561068c57600080fd5b50610746600480360360208110156106a357600080fd5b81019080803590602001906401000000008111156106c057600080fd5b8201836020820111156106d257600080fd5b803590602001918460018302840111640100000000831117156106f457600080fd5b91908080601f016020809104026020016040519081016040528093929190818152602001838380828437600081840152601f19601f8201169050808301925050505050505091929192905050506116a1565b6040518080602001806020018773ffffffffffffffffffffffffffffffffffffffff1673ffffffffffffffffffffffffffffffffffffffff1681526020018673ffffffffffffffffffffffffffffffffffffffff1673ffffffffffffffffffffffffffffffffffffffff1681526020018573ffffffffffffffffffffffffffffffffffffffff1673ffffffffffffffffffffffffffffffffffffffff1681526020018060200184810384528a818151815260200191508051906020019080838360005b83811015610824578082015181840152602081019050610809565b50505050905090810190601f1680156108515780820380516001836020036101000a031916815260200191505b50848103835289818151815260200191508051906020019080838360005b8381101561088a57808201518184015260208101905061086f565b50505050905090810190601f1680156108b75780820380516001836020036101000a031916815260200191505b50848103825285818151815260200191508051906020019080838360005b838110156108f05780820151818401526020810190506108d5565b50505050905090810190601f16801561091d5780820380516001836020036101000a031916815260200191505b50995050505050505050505060405180910390f35b34801561093e57600080fd5b50610b306004803603608081101561095557600080fd5b810190808035906020019064010000000081111561097257600080fd5b82018360208201111561098457600080fd5b803590602001918460018302840111640100000000831117156109a657600080fd5b91908080601f016020809104026020016040519081016040528093929190818152602001838380828437600081840152601f19601f8201169050808301925050505050505091929192908035906020019092919080359060200190640100000000811115610a1357600080fd5b820183602082011115610a2557600080fd5b80359060200191846001830284011164010000000083111715610a4757600080fd5b91908080601f016020809104026020016040519081016040528093929190818152602001838380828437600081840152601f19601f82011690508083019250505050505050919291929080359060200190640100000000811115610aaa57600080fd5b820183602082011115610abc57600080fd5b80359060200191846001830284011164010000000083111715610ade57600080fd5b91908080601f016020809104026020016040519081016040528093929190818152602001838380828437600081840152601f19601f820116905080830192505050505050509192919290505050611b8b565b604051808215151515815260200191505060405180910390f35b8360019080519060200190610b60929190611fed565b508260028190555081600460006101000a81548173ffffffffffffffffffffffffffffffffffffffff021916908373ffffffffffffffffffffffffffffffffffffffff1602179055508060039080519060200190610bbf929190611fed565b507f51a7f65c6325882f237d4aeb43228179cfad48b868511d508e24b4437a8191376040518080602001828103825260128152602001807f636f6e646974696f6e732061726520736574000000000000000000000000000081525060200191505060405180910390a150505050565b6000600460009054906101000a900473ffffffffffffffffffffffffffffffffffffffff1673ffffffffffffffffffffffffffffffffffffffff163373ffffffffffffffffffffffffffffffffffffffff161480610cd857506000809054906101000a900473ffffffffffffffffffffffffffffffffffffffff1673ffffffffffffffffffffffffffffffffffffffff163373ffffffffffffffffffffffffffffffffffffffff16145b1561103857856007866040518082805190602001908083835b602083101515610d165780518252602082019150602081019050602083039250610cf1565b6001836020036101000a03801982511681845116808217855250505050505090500191505090815260200160405180910390206001019080519060200190610d5f929190611fed565b50836007866040518082805190602001908083835b602083101515610d995780518252602082019150602081019050602083039250610d74565b6001836020036101000a03801982511681845116808217855250505050505090500191505090815260200160405180910390206000019080519060200190610de2929190611fed565b50846007866040518082805190602001908083835b602083101515610e1c5780518252602082019150602081019050602083039250610df7565b6001836020036101000a03801982511681845116808217855250505050505090500191505090815260200160405180910390206005019080519060200190610e65929190611fed565b50826007866040518082805190602001908083835b602083101515610e9f5780518252602082019150602081019050602083039250610e7a565b6001836020036101000a038019825116818451168082178552505050505050905001915050908152602001604051809103902060060181905550336007866040518082805190602001908083835b602083101515610f125780518252602082019150602081019050602083039250610eed565b6001836020036101000a038019825116818451168082178552505050505050905001915050908152602001604051809103902060020160006101000a81548173ffffffffffffffffffffffffffffffffffffffff021916908373ffffffffffffffffffffffffffffffffffffffff160217905550816007866040518082805190602001908083835b602083101515610fbf5780518252602082019150602081019050602083039250610f9a565b6001836020036101000a038019825116818451168082178552505050505050905001915050908152602001604051809103902060040160006101000a81548173ffffffffffffffffffffffffffffffffffffffff021916908373ffffffffffffffffffffffffffffffffffffffff1602179055506110e6565b336007866040518082805190602001908083835b602083101515611071578051825260208201915060208101905060208303925061104c565b6001836020036101000a038019825116818451168082178552505050505050905001915050908152602001604051809103902060030160006101000a81548173ffffffffffffffffffffffffffffffffffffffff021916908373ffffffffffffffffffffffffffffffffffffffff1602179055505b7fbfc8440e49ad8cb2bd996c652d14160f472aea1c70d0c6d4137e4837bf9e12b18533866040518080602001806020018573ffffffffffffffffffffffffffffffffffffffff1673ffffffffffffffffffffffffffffffffffffffff168152602001806020018481038452600d8152602001807f736869706d656e742073656e7400000000000000000000000000000000000000815250602001848103835287818151815260200191508051906020019080838360005b838110156111b857808201518184015260208101905061119d565b50505050905090810190601f1680156111e55780820380516001836020036101000a031916815260200191505b50848103825285818151815260200191508051906020019080838360005b8381101561121e578082015181840152602081019050611203565b50505050905090810190601f16801561124b5780820380516001836020036101000a031916815260200191505b50965050505050505060405180910390a16001905095945050505050565b6000606060006060806005866040518082805190602001908083835b6020831015156112aa5780518252602082019150602081019050602083039250611285565b6001836020036101000a038019825116818451168082178552505050505050905001915050908152602001604051809103902060000160009054906101000a900473ffffffffffffffffffffffffffffffffffffffff166005876040518082805190602001908083835b6020831015156113395780518252602082019150602081019050602083039250611314565b6001836020036101000a03801982511681845116808217855250505050505090500191505090815260200160405180910390206001016005886040518082805190602001908083835b6020831015156113a75780518252602082019150602081019050602083039250611382565b6001836020036101000a0380198251168184511680821785525050505050509050019150509081526020016040518091039020600201546005896040518082805190602001908083835b60208310151561141657805182526020820191506020810190506020830392506113f1565b6001836020036101000a038019825116818451168082178552505050505050905001915050908152602001604051809103902060030160058a6040518082805190602001908083835b602083101515611484578051825260208201915060208101905060208303925061145f565b6001836020036101000a0380198251168184511680821785525050505050509050019150509081526020016040518091039020600401838054600181600116156101000203166002900480601f01602080910402602001604051908101604052809291908181526020018280546001816001161561010002031660029004801561154f5780601f106115245761010080835404028352916020019161154f565b820191906000526020600020905b81548152906001019060200180831161153257829003601f168201915b50505050509350818054600181600116156101000203166002900480601f0160208091040260200160405190810160405280929190818152602001828054600181600116156101000203166002900480156115eb5780601f106115c0576101008083540402835291602001916115eb565b820191906000526020600020905b8154815290600101906020018083116115ce57829003601f168201915b50505050509150808054600181600116156101000203166002900480601f0160208091040260200160405190810160405280929190818152602001828054600181600116156101000203166002900480156116875780601f1061165c57610100808354040283529160200191611687565b820191906000526020600020905b81548152906001019060200180831161166a57829003601f168201915b505050505090509450945094509450945091939590929450565b606080600080600060606007876040518082805190602001908083835b6020831015156116e357805182526020820191506020810190506020830392506116be565b6001836020036101000a03801982511681845116808217855250505050505090500191505090815260200160405180910390206001016007886040518082805190602001908083835b602083101515611751578051825260208201915060208101905060208303925061172c565b6001836020036101000a03801982511681845116808217855250505050505090500191505090815260200160405180910390206005016007896040518082805190602001908083835b6020831015156117bf578051825260208201915060208101905060208303925061179a565b6001836020036101000a038019825116818451168082178552505050505050905001915050908152602001604051809103902060020160009054906101000a900473ffffffffffffffffffffffffffffffffffffffff1660078a6040518082805190602001908083835b60208310151561184e5780518252602082019150602081019050602083039250611829565b6001836020036101000a038019825116818451168082178552505050505050905001915050908152602001604051809103902060030160009054906101000a900473ffffffffffffffffffffffffffffffffffffffff1660078b6040518082805190602001908083835b6020831015156118dd57805182526020820191506020810190506020830392506118b8565b6001836020036101000a038019825116818451168082178552505050505050905001915050908152602001604051809103902060040160009054906101000a900473ffffffffffffffffffffffffffffffffffffffff1660078c6040518082805190602001908083835b60208310151561196c5780518252602082019150602081019050602083039250611947565b6001836020036101000a0380198251168184511680821785525050505050509050019150509081526020016040518091039020600001858054600181600116156101000203166002900480601f016020809104026020016040519081016040528092919081815260200182805460018160011615610100020316600290048015611a375780601f10611a0c57610100808354040283529160200191611a37565b820191906000526020600020905b815481529060010190602001808311611a1a57829003601f168201915b50505050509550848054600181600116156101000203166002900480601f016020809104026020016040519081016040528092919081815260200182805460018160011615610100020316600290048015611ad35780601f10611aa857610100808354040283529160200191611ad3565b820191906000526020600020905b815481529060010190602001808311611ab657829003601f168201915b50505050509450808054600181600116156101000203166002900480601f016020809104026020016040519081016040528092919081815260200182805460018160011615610100020316600290048015611b6f5780601f10611b4457610100808354040283529160200191611b6f565b820191906000526020600020905b815481529060010190602001808311611b5257829003601f168201915b5050505050905095509550955095509550955091939550919395565b6000836007836040518082805190602001908083835b602083101515611bc65780518252602082019150602081019050602083039250611ba1565b6001836020036101000a038019825116818451168082178552505050505050905001915050908152602001604051809103902060060154148015611d625750826040516020018082805190602001908083835b602083101515611c3e5780518252602082019150602081019050602083039250611c19565b6001836020036101000a038019825116818451168082178552505050505050905001915050604051602081830303815290604052805190602001206007836040518082805190602001908083835b602083101515611cb15780518252602082019150602081019050602083039250611c8c565b6001836020036101000a03801982511681845116808217855250505050505090500191505090815260200160405180910390206001016040516020018082805460018160011615610100020316600290048015611d455780601f10611d23576101008083540402835291820191611d45565b820191906000526020600020905b815481529060010190602001808311611d31575b505091505060405160208183030381529060405280519060200120145b15611fe4577fbfc8440e49ad8cb2bd996c652d14160f472aea1c70d0c6d4137e4837bf9e12b18233876040518080602001806020018573ffffffffffffffffffffffffffffffffffffffff1673ffffffffffffffffffffffffffffffffffffffff16815260200180602001848103845260118152602001807f536869706d656e74207265636965766564000000000000000000000000000000815250602001848103835287818151815260200191508051906020019080838360005b83811015611e39578082015181840152602081019050611e1e565b50505050905090810190601f168015611e665780820380516001836020036101000a031916815260200191505b50848103825285818151815260200191508051906020019080838360005b83811015611e9f578082015181840152602081019050611e84565b50505050905090810190601f168015611ecc5780820380516001836020036101000a031916815260200191505b50965050505050505060405180910390a1600460009054906101000a900473ffffffffffffffffffffffffffffffffffffffff1673ffffffffffffffffffffffffffffffffffffffff163373ffffffffffffffffffffffffffffffffffffffff161415611fdb573373ffffffffffffffffffffffffffffffffffffffff166108fc600660008060009054906101000a900473ffffffffffffffffffffffffffffffffffffffff1673ffffffffffffffffffffffffffffffffffffffff1673ffffffffffffffffffffffffffffffffffffffff168152602001908152602001600020549081150290604051600060405180830381858888f19350505050158015611fd9573d6000803e3d6000fd5b505b60019050611fe5565b5b949350505050565b828054600181600116156101000203166002900490600052602060002090601f016020900481019282601f1061202e57805160ff191683800117855561205c565b8280016001018555821561205c579182015b8281111561205b578251825591602001919060010190612040565b5b509050612069919061206d565b5090565b61208f91905b8082111561208b576000816000905550600101612073565b5090565b9056fea165627a7a7230582094d455f5f4d32d432426e96eb7f1e2d10f5c96f599b9ed97907b7d1b8abc960e0029",
  "source": "pragma solidity >=0.5.0 <0.7.0;\r\n\r\ncontract shipmentContract{\r\n\r\naddress owner;\r\n\r\nstring location; uint quantity; string product;\r\naddress receiverAddess;\r\n\r\nstruct Product{\r\naddress producer;    \r\nstring name;\r\nuint quantity;\r\nstring tag;\r\nstring proddescription;\r\n}\r\n\r\nstruct AssetTransfer{\r\nstring shipmentlocation;\r\nstring asset; \r\naddress sender; \r\naddress intermediate;\r\naddress receiver;\r\nstring trackingNo;\r\nuint quantity;\r\n}\r\n\r\nconstructor ()public payable{\r\nowner=msg.sender;\r\naccbalance[owner]=msg.value;    \r\n}\r\n\r\nevent Message(string message);\r\nevent Shipped(string _message, string trackingno, address _sender,string location);\r\n\r\nmodifier only_admin{\r\nrequire(msg.sender==owner);\r\n_;}\r\n\r\nmapping (string=>Product)products;\r\nmapping (address=>uint) accbalance;\r\nmapping(string=>AssetTransfer)assetTransfer;\r\n\r\n\r\naddress[] intermediates;\r\n\r\nfunction getProduct(string memory _tag)public view returns (address ,string memory,uint,string memory,string memory){\r\nreturn(products[_tag].producer,products[_tag].name,products[_tag].quantity,products[_tag].tag,products[_tag].proddescription);}    \r\n\r\n\r\nfunction sendShipment(string memory _asset,string memory trackingNo, string memory _destination,uint _quantity,address _reciever)public returns(bool){\r\nif(msg.sender==receiverAddess||msg.sender==owner){\r\nassetTransfer[trackingNo].asset=_asset;\r\nassetTransfer[trackingNo].shipmentlocation=_destination;\r\nassetTransfer[trackingNo].trackingNo=trackingNo;\r\nassetTransfer[trackingNo].quantity=_quantity;\r\nassetTransfer[trackingNo].sender=msg.sender;\r\nassetTransfer[trackingNo].receiver=_reciever;}\r\nelse{assetTransfer[trackingNo].intermediate=msg.sender;\r\n}\r\nemit Shipped(\"shipment sent\", trackingNo, msg.sender, _destination);\r\nreturn true;}\r\n\r\n\r\n\r\nfunction setconditions(string memory _location,uint _quantity,address _receiverAddess,string memory _asset)public{\r\nlocation=_location;//current location\r\nquantity=_quantity;\r\nreceiverAddess=_receiverAddess;//destination address\r\nproduct=_asset;\r\n \r\nemit Message('conditions are set'); }\r\n\r\n//alloting shipment\r\nfunction getshipment(string memory _location,uint _quantity,string memory _asset,string memory trackingNo)public returns(bool){\r\nif((assetTransfer[trackingNo].quantity)==_quantity && \r\nkeccak256(abi.encodePacked(assetTransfer[trackingNo].asset))==keccak256(abi.encodePacked(_asset))){\r\nemit Shipped('Shipment recieved',trackingNo,msg.sender,_location);    \r\nif (msg.sender==receiverAddess){\r\n    msg.sender.transfer(accbalance[owner]); \r\n}\r\n\r\nreturn true;}\r\n}\r\n\r\n//history of shipment\r\nfunction showProvenance(string memory _trackingNo)public view returns(string memory,string memory, address,address,address,string memory){\r\nreturn(assetTransfer[_trackingNo].asset,\r\nassetTransfer[_trackingNo].trackingNo, \r\nassetTransfer[_trackingNo].sender,\r\nassetTransfer[_trackingNo].intermediate,\r\nassetTransfer[_trackingNo].receiver,\r\nassetTransfer[_trackingNo].shipmentlocation);\r\n}\r\n}\r\n\r\n\r\n//receiver--0x38C8EEC08c97875a1A506134993a9196bfc79E6F--sender\r\n//sender--0x828BEc28739f5c8abd110d51f5fC9adC76c30C4e\r\n//new receiver-- 0x7346Eb2DF4BEC721c39060223554Ec9C4405dbC0\r\n// Sequence\r\n\r\n// setcondition-----shippment dashbord\r\n// sendShipment-->owner address---\r\n//getshipment-->intermediate address-----\r\n//sendshipemnt-->intermediate address-----\r\n//getshipemnt-->destination address----\r\n\r\n//owner= address[0]\r\n//intermediate=address[1]\r\n//destination=address[last]\r\n\r\n\r\n//set conditions --\"pune\",\"100\",\"0xdD870fA1b7C4700F2BD7f44238821C26f7392148\",\"pipes\"   from onwer\r\n",
  "sourcePath": "C:/Users/Admin/Desktop/nodeProject/SIH Gail E-tendering/contracts/shipmentContract.sol",
  "compiler": {
    "name": "solc",
    "version": "0.5.1+commit.c8a2cb62.Emscripten.clang"
  },
  "schemaVersion": "3.2.3",
  "updatedAt": "2020-08-03T09:11:30.980Z",
  "networkType": "ethereum",
  "devdoc": {
    "methods": {}
  },
  "userdoc": {
    "methods": {}
  }
}