{
  "contractName": "shipmentContract",
  "abi": [
    {
      "inputs": [],
      "payable": true,
      "stateMutability": "payable",
      "type": "constructor"
    },
    {
      "anonymous": false,
      "inputs": [
        {
          "indexed": false,
          "name": "message",
          "type": "string"
        }
      ],
      "name": "Message",
      "type": "event"
    },
    {
      "anonymous": false,
      "inputs": [
        {
          "indexed": false,
          "name": "_message",
          "type": "string"
        },
        {
          "indexed": false,
          "name": "trackingno",
          "type": "string"
        },
        {
          "indexed": false,
          "name": "_sender",
          "type": "address"
        },
        {
          "indexed": false,
          "name": "location",
          "type": "string"
        }
      ],
      "name": "Shipped",
      "type": "event"
    },
    {
      "constant": true,
      "inputs": [
        {
          "name": "_tag",
          "type": "string"
        }
      ],
      "name": "getProduct",
      "outputs": [
        {
          "name": "",
          "type": "address"
        },
        {
          "name": "",
          "type": "string"
        },
        {
          "name": "",
          "type": "uint256"
        },
        {
          "name": "",
          "type": "string"
        },
        {
          "name": "",
          "type": "string"
        }
      ],
      "payable": false,
      "stateMutability": "view",
      "type": "function"
    },
    {
      "constant": false,
      "inputs": [
        {
          "name": "_asset",
          "type": "string"
        },
        {
          "name": "trackingNo",
          "type": "string"
        },
        {
          "name": "_destination",
          "type": "string"
        },
        {
          "name": "_quantity",
          "type": "uint256"
        },
        {
          "name": "_reciever",
          "type": "address"
        }
      ],
      "name": "sendShipment",
      "outputs": [
        {
          "name": "",
          "type": "bool"
        }
      ],
      "payable": false,
      "stateMutability": "nonpayable",
      "type": "function"
    },
    {
      "constant": false,
      "inputs": [
        {
          "name": "_location",
          "type": "string"
        },
        {
          "name": "_quantity",
          "type": "uint256"
        },
        {
          "name": "_receiverAddess",
          "type": "address"
        },
        {
          "name": "_asset",
          "type": "string"
        }
      ],
      "name": "setconditions",
      "outputs": [],
      "payable": false,
      "stateMutability": "nonpayable",
      "type": "function"
    },
    {
      "constant": false,
      "inputs": [
        {
          "name": "_location",
          "type": "string"
        },
        {
          "name": "_quantity",
          "type": "uint256"
        },
        {
          "name": "_asset",
          "type": "string"
        },
        {
          "name": "trackingNo",
          "type": "string"
        }
      ],
      "name": "getshipment",
      "outputs": [
        {
          "name": "",
          "type": "bool"
        }
      ],
      "payable": false,
      "stateMutability": "nonpayable",
      "type": "function"
    },
    {
      "constant": true,
      "inputs": [
        {
          "name": "_trackingNo",
          "type": "string"
        }
      ],
      "name": "showProvenance",
      "outputs": [
        {
          "name": "",
          "type": "string"
        },
        {
          "name": "",
          "type": "string"
        },
        {
          "name": "",
          "type": "address"
        },
        {
          "name": "",
          "type": "address"
        },
        {
          "name": "",
          "type": "address"
        },
        {
          "name": "",
          "type": "string"
        }
      ],
      "payable": false,
      "stateMutability": "view",
      "type": "function"
    },
    {
      "constant": true,
      "inputs": [],
      "name": "getAllCryptographersAddresses",
      "outputs": [
        {
          "name": "",
          "type": "address[]"
        }
      ],
      "payable": false,
      "stateMutability": "view",
      "type": "function"
    }
  ],
  "bytecode": "0x6080604052336000806101000a81548173ffffffffffffffffffffffffffffffffffffffff021916908373ffffffffffffffffffffffffffffffffffffffff16021790555034600660008060009054906101000a900473ffffffffffffffffffffffffffffffffffffffff1673ffffffffffffffffffffffffffffffffffffffff1673ffffffffffffffffffffffffffffffffffffffff168152602001908152602001600020819055506121bf806100b86000396000f3fe608060405260043610610072576000357c0100000000000000000000000000000000000000000000000000000000900480630f8b8fab14610077578063428cb34a146102005780634d67f83d1461043857806368111cce146104a4578063a9ee5b27146106f7578063c1f9c6e1146109a9575b600080fd5b34801561008357600080fd5b506101fe6004803603608081101561009a57600080fd5b81019080803590602001906401000000008111156100b757600080fd5b8201836020820111156100c957600080fd5b803590602001918460018302840111640100000000831117156100eb57600080fd5b91908080601f016020809104026020016040519081016040528093929190818152602001838380828437600081840152601f19601f82011690508083019250505050505050919291929080359060200190929190803573ffffffffffffffffffffffffffffffffffffffff1690602001909291908035906020019064010000000081111561017857600080fd5b82018360208201111561018a57600080fd5b803590602001918460018302840111640100000000831117156101ac57600080fd5b91908080601f016020809104026020016040519081016040528093929190818152602001838380828437600081840152601f19601f820116905080830192505050505050509192919290505050610bc1565b005b34801561020c57600080fd5b5061041e600480360360a081101561022357600080fd5b810190808035906020019064010000000081111561024057600080fd5b82018360208201111561025257600080fd5b8035906020019184600183028401116401000000008311171561027457600080fd5b91908080601f016020809104026020016040519081016040528093929190818152602001838380828437600081840152601f19601f820116905080830192505050505050509192919290803590602001906401000000008111156102d757600080fd5b8201836020820111156102e957600080fd5b8035906020019184600183028401116401000000008311171561030b57600080fd5b91908080601f016020809104026020016040519081016040528093929190818152602001838380828437600081840152601f19601f8201169050808301925050505050505091929192908035906020019064010000000081111561036e57600080fd5b82018360208201111561038057600080fd5b803590602001918460018302840111640100000000831117156103a257600080fd5b91908080601f016020809104026020016040519081016040528093929190818152602001838380828437600081840152601f19601f82011690508083019250505050505050919291929080359060200190929190803573ffffffffffffffffffffffffffffffffffffffff169060200190929190505050610ca5565b604051808215151515815260200191505060405180910390f35b34801561044457600080fd5b5061044d6112dc565b6040518080602001828103825283818151815260200191508051906020019060200280838360005b83811015610490578082015181840152602081019050610475565b505050509050019250505060405180910390f35b3480156104b057600080fd5b5061056a600480360360208110156104c757600080fd5b81019080803590602001906401000000008111156104e457600080fd5b8201836020820111156104f657600080fd5b8035906020019184600183028401116401000000008311171561051857600080fd5b91908080601f016020809104026020016040519081016040528093929190818152602001838380828437600081840152601f19601f82011690508083019250505050505050919291929050505061136a565b604051808673ffffffffffffffffffffffffffffffffffffffff1673ffffffffffffffffffffffffffffffffffffffff168152602001806020018581526020018060200180602001848103845288818151815260200191508051906020019080838360005b838110156105ea5780820151818401526020810190506105cf565b50505050905090810190601f1680156106175780820380516001836020036101000a031916815260200191505b50848103835286818151815260200191508051906020019080838360005b83811015610650578082015181840152602081019050610635565b50505050905090810190601f16801561067d5780820380516001836020036101000a031916815260200191505b50848103825285818151815260200191508051906020019080838360005b838110156106b657808201518184015260208101905061069b565b50505050905090810190601f1680156106e35780820380516001836020036101000a031916815260200191505b509850505050505050505060405180910390f35b34801561070357600080fd5b506107bd6004803603602081101561071a57600080fd5b810190808035906020019064010000000081111561073757600080fd5b82018360208201111561074957600080fd5b8035906020019184600183028401116401000000008311171561076b57600080fd5b91908080601f016020809104026020016040519081016040528093929190818152602001838380828437600081840152601f19601f8201169050808301925050505050505091929192905050506117a2565b6040518080602001806020018773ffffffffffffffffffffffffffffffffffffffff1673ffffffffffffffffffffffffffffffffffffffff1681526020018673ffffffffffffffffffffffffffffffffffffffff1673ffffffffffffffffffffffffffffffffffffffff1681526020018573ffffffffffffffffffffffffffffffffffffffff1673ffffffffffffffffffffffffffffffffffffffff1681526020018060200184810384528a818151815260200191508051906020019080838360005b8381101561089b578082015181840152602081019050610880565b50505050905090810190601f1680156108c85780820380516001836020036101000a031916815260200191505b50848103835289818151815260200191508051906020019080838360005b838110156109015780820151818401526020810190506108e6565b50505050905090810190601f16801561092e5780820380516001836020036101000a031916815260200191505b50848103825285818151815260200191508051906020019080838360005b8381101561096757808201518184015260208101905061094c565b50505050905090810190601f1680156109945780820380516001836020036101000a031916815260200191505b50995050505050505050505060405180910390f35b3480156109b557600080fd5b50610ba7600480360360808110156109cc57600080fd5b81019080803590602001906401000000008111156109e957600080fd5b8201836020820111156109fb57600080fd5b80359060200191846001830284011164010000000083111715610a1d57600080fd5b91908080601f016020809104026020016040519081016040528093929190818152602001838380828437600081840152601f19601f8201169050808301925050505050505091929192908035906020019092919080359060200190640100000000811115610a8a57600080fd5b820183602082011115610a9c57600080fd5b80359060200191846001830284011164010000000083111715610abe57600080fd5b91908080601f016020809104026020016040519081016040528093929190818152602001838380828437600081840152601f19601f82011690508083019250505050505050919291929080359060200190640100000000811115610b2157600080fd5b820183602082011115610b3357600080fd5b80359060200191846001830284011164010000000083111715610b5557600080fd5b91908080601f016020809104026020016040519081016040528093929190818152602001838380828437600081840152601f19601f820116905080830192505050505050509192919290505050611c8c565b604051808215151515815260200191505060405180910390f35b8360019080519060200190610bd79291906120ee565b508260028190555081600460006101000a81548173ffffffffffffffffffffffffffffffffffffffff021916908373ffffffffffffffffffffffffffffffffffffffff1602179055508060039080519060200190610c369291906120ee565b507f51a7f65c6325882f237d4aeb43228179cfad48b868511d508e24b4437a8191376040518080602001828103825260128152602001807f636f6e646974696f6e732061726520736574000000000000000000000000000081525060200191505060405180910390a150505050565b6000600460009054906101000a900473ffffffffffffffffffffffffffffffffffffffff1673ffffffffffffffffffffffffffffffffffffffff163373ffffffffffffffffffffffffffffffffffffffff1614151561115957856007866040518082805190602001908083835b602083101515610d375780518252602082019150602081019050602083039250610d12565b6001836020036101000a03801982511681845116808217855250505050505090500191505090815260200160405180910390206001019080519060200190610d809291906120ee565b50836007866040518082805190602001908083835b602083101515610dba5780518252602082019150602081019050602083039250610d95565b6001836020036101000a03801982511681845116808217855250505050505090500191505090815260200160405180910390206000019080519060200190610e039291906120ee565b50846007866040518082805190602001908083835b602083101515610e3d5780518252602082019150602081019050602083039250610e18565b6001836020036101000a03801982511681845116808217855250505050505090500191505090815260200160405180910390206005019080519060200190610e869291906120ee565b50826007866040518082805190602001908083835b602083101515610ec05780518252602082019150602081019050602083039250610e9b565b6001836020036101000a038019825116818451168082178552505050505050905001915050908152602001604051809103902060060181905550336007866040518082805190602001908083835b602083101515610f335780518252602082019150602081019050602083039250610f0e565b6001836020036101000a038019825116818451168082178552505050505050905001915050908152602001604051809103902060020160006101000a81548173ffffffffffffffffffffffffffffffffffffffff021916908373ffffffffffffffffffffffffffffffffffffffff160217905550816007866040518082805190602001908083835b602083101515610fe05780518252602082019150602081019050602083039250610fbb565b6001836020036101000a038019825116818451168082178552505050505050905001915050908152602001604051809103902060040160006101000a81548173ffffffffffffffffffffffffffffffffffffffff021916908373ffffffffffffffffffffffffffffffffffffffff1602179055506000809054906101000a900473ffffffffffffffffffffffffffffffffffffffff1673ffffffffffffffffffffffffffffffffffffffff163373ffffffffffffffffffffffffffffffffffffffff1614151561115857336007866040518082805190602001908083835b6020831015156110e357805182526020820191506020810190506020830392506110be565b6001836020036101000a038019825116818451168082178552505050505050905001915050908152602001604051809103902060030160006101000a81548173ffffffffffffffffffffffffffffffffffffffff021916908373ffffffffffffffffffffffffffffffffffffffff1602179055505b5b7fbfc8440e49ad8cb2bd996c652d14160f472aea1c70d0c6d4137e4837bf9e12b18533866040518080602001806020018573ffffffffffffffffffffffffffffffffffffffff1673ffffffffffffffffffffffffffffffffffffffff168152602001806020018481038452600d8152602001807f736869706d656e742073656e7400000000000000000000000000000000000000815250602001848103835287818151815260200191508051906020019080838360005b8381101561122b578082015181840152602081019050611210565b50505050905090810190601f1680156112585780820380516001836020036101000a031916815260200191505b50848103825285818151815260200191508051906020019080838360005b83811015611291578082015181840152602081019050611276565b50505050905090810190601f1680156112be5780820380516001836020036101000a031916815260200191505b50965050505050505060405180910390a16001905095945050505050565b6060600880548060200260200160405190810160405280929190818152602001828054801561136057602002820191906000526020600020905b8160009054906101000a900473ffffffffffffffffffffffffffffffffffffffff1673ffffffffffffffffffffffffffffffffffffffff1681526020019060010190808311611316575b5050505050905090565b6000606060006060806005866040518082805190602001908083835b6020831015156113ab5780518252602082019150602081019050602083039250611386565b6001836020036101000a038019825116818451168082178552505050505050905001915050908152602001604051809103902060000160009054906101000a900473ffffffffffffffffffffffffffffffffffffffff166005876040518082805190602001908083835b60208310151561143a5780518252602082019150602081019050602083039250611415565b6001836020036101000a03801982511681845116808217855250505050505090500191505090815260200160405180910390206001016005886040518082805190602001908083835b6020831015156114a85780518252602082019150602081019050602083039250611483565b6001836020036101000a0380198251168184511680821785525050505050509050019150509081526020016040518091039020600201546005896040518082805190602001908083835b60208310151561151757805182526020820191506020810190506020830392506114f2565b6001836020036101000a038019825116818451168082178552505050505050905001915050908152602001604051809103902060030160058a6040518082805190602001908083835b6020831015156115855780518252602082019150602081019050602083039250611560565b6001836020036101000a0380198251168184511680821785525050505050509050019150509081526020016040518091039020600401838054600181600116156101000203166002900480601f0160208091040260200160405190810160405280929190818152602001828054600181600116156101000203166002900480156116505780601f1061162557610100808354040283529160200191611650565b820191906000526020600020905b81548152906001019060200180831161163357829003601f168201915b50505050509350818054600181600116156101000203166002900480601f0160208091040260200160405190810160405280929190818152602001828054600181600116156101000203166002900480156116ec5780601f106116c1576101008083540402835291602001916116ec565b820191906000526020600020905b8154815290600101906020018083116116cf57829003601f168201915b50505050509150808054600181600116156101000203166002900480601f0160208091040260200160405190810160405280929190818152602001828054600181600116156101000203166002900480156117885780601f1061175d57610100808354040283529160200191611788565b820191906000526020600020905b81548152906001019060200180831161176b57829003601f168201915b505050505090509450945094509450945091939590929450565b606080600080600060606007876040518082805190602001908083835b6020831015156117e457805182526020820191506020810190506020830392506117bf565b6001836020036101000a03801982511681845116808217855250505050505090500191505090815260200160405180910390206001016007886040518082805190602001908083835b602083101515611852578051825260208201915060208101905060208303925061182d565b6001836020036101000a03801982511681845116808217855250505050505090500191505090815260200160405180910390206005016007896040518082805190602001908083835b6020831015156118c0578051825260208201915060208101905060208303925061189b565b6001836020036101000a038019825116818451168082178552505050505050905001915050908152602001604051809103902060020160009054906101000a900473ffffffffffffffffffffffffffffffffffffffff1660078a6040518082805190602001908083835b60208310151561194f578051825260208201915060208101905060208303925061192a565b6001836020036101000a038019825116818451168082178552505050505050905001915050908152602001604051809103902060030160009054906101000a900473ffffffffffffffffffffffffffffffffffffffff1660078b6040518082805190602001908083835b6020831015156119de57805182526020820191506020810190506020830392506119b9565b6001836020036101000a038019825116818451168082178552505050505050905001915050908152602001604051809103902060040160009054906101000a900473ffffffffffffffffffffffffffffffffffffffff1660078c6040518082805190602001908083835b602083101515611a6d5780518252602082019150602081019050602083039250611a48565b6001836020036101000a0380198251168184511680821785525050505050509050019150509081526020016040518091039020600001858054600181600116156101000203166002900480601f016020809104026020016040519081016040528092919081815260200182805460018160011615610100020316600290048015611b385780601f10611b0d57610100808354040283529160200191611b38565b820191906000526020600020905b815481529060010190602001808311611b1b57829003601f168201915b50505050509550848054600181600116156101000203166002900480601f016020809104026020016040519081016040528092919081815260200182805460018160011615610100020316600290048015611bd45780601f10611ba957610100808354040283529160200191611bd4565b820191906000526020600020905b815481529060010190602001808311611bb757829003601f168201915b50505050509450808054600181600116156101000203166002900480601f016020809104026020016040519081016040528092919081815260200182805460018160011615610100020316600290048015611c705780601f10611c4557610100808354040283529160200191611c70565b820191906000526020600020905b815481529060010190602001808311611c5357829003601f168201915b5050505050905095509550955095509550955091939550919395565b6000836007836040518082805190602001908083835b602083101515611cc75780518252602082019150602081019050602083039250611ca2565b6001836020036101000a038019825116818451168082178552505050505050905001915050908152602001604051809103902060060154148015611e635750826040516020018082805190602001908083835b602083101515611d3f5780518252602082019150602081019050602083039250611d1a565b6001836020036101000a038019825116818451168082178552505050505050905001915050604051602081830303815290604052805190602001206007836040518082805190602001908083835b602083101515611db25780518252602082019150602081019050602083039250611d8d565b6001836020036101000a03801982511681845116808217855250505050505090500191505090815260200160405180910390206001016040516020018082805460018160011615610100020316600290048015611e465780601f10611e24576101008083540402835291820191611e46565b820191906000526020600020905b815481529060010190602001808311611e32575b505091505060405160208183030381529060405280519060200120145b156120e5577fbfc8440e49ad8cb2bd996c652d14160f472aea1c70d0c6d4137e4837bf9e12b18233876040518080602001806020018573ffffffffffffffffffffffffffffffffffffffff1673ffffffffffffffffffffffffffffffffffffffff16815260200180602001848103845260118152602001807f536869706d656e74207265636965766564000000000000000000000000000000815250602001848103835287818151815260200191508051906020019080838360005b83811015611f3a578082015181840152602081019050611f1f565b50505050905090810190601f168015611f675780820380516001836020036101000a031916815260200191505b50848103825285818151815260200191508051906020019080838360005b83811015611fa0578082015181840152602081019050611f85565b50505050905090810190601f168015611fcd5780820380516001836020036101000a031916815260200191505b50965050505050505060405180910390a1600460009054906101000a900473ffffffffffffffffffffffffffffffffffffffff1673ffffffffffffffffffffffffffffffffffffffff163373ffffffffffffffffffffffffffffffffffffffff1614156120dc573373ffffffffffffffffffffffffffffffffffffffff166108fc600660008060009054906101000a900473ffffffffffffffffffffffffffffffffffffffff1673ffffffffffffffffffffffffffffffffffffffff1673ffffffffffffffffffffffffffffffffffffffff168152602001908152602001600020549081150290604051600060405180830381858888f193505050501580156120da573d6000803e3d6000fd5b505b600190506120e6565b5b949350505050565b828054600181600116156101000203166002900490600052602060002090601f016020900481019282601f1061212f57805160ff191683800117855561215d565b8280016001018555821561215d579182015b8281111561215c578251825591602001919060010190612141565b5b50905061216a919061216e565b5090565b61219091905b8082111561218c576000816000905550600101612174565b5090565b9056fea165627a7a72305820f63e9b168b418da16e22f47a363f4b8f3a4324872a0778147b552249daed67fd0029",
  "source": "pragma solidity >=0.5.0 <0.7.0;\r\n\r\ncontract shipmentContract{\r\n\r\naddress owner;\r\n\r\nstring location; uint quantity; string product; //uint payment; \r\naddress receiverAddess;\r\n/*struct Users{\r\nstring companyName; \r\nstring role;\r\nstring country;\r\nstring city;\r\nuint phoneNo;\r\nstring physicalAddress; \r\nbool certified;\r\n}\r\n*/\r\n\r\nstruct Product{\r\naddress producer;    \r\nstring name;\r\nuint quantity;\r\nstring tag;\r\nstring proddescription;\r\n}\r\n\r\nstruct AssetTransfer{\r\nstring shipmentlocation;\r\nstring asset; \r\naddress sender; \r\naddress intermediate;\r\naddress receiver;\r\nstring trackingNo;\r\nuint quantity;\r\n}\r\n\r\nconstructor ()public payable{\r\nowner=msg.sender;\r\naccbalance[owner]=msg.value;    \r\n}\r\n\r\nevent Message(string message);\r\nevent Shipped(string _message, string trackingno, address _sender,string location);\r\n\r\nmodifier only_admin{\r\nrequire(msg.sender==owner);\r\n_;}\r\n\r\nmapping (string=>Product)products;\r\n//mapping(address=>Users)users;\r\nmapping (address=>uint) accbalance;\r\nmapping(string=>AssetTransfer)assetTransfer;\r\n\r\n//address[] private stakeholders;\r\n//string[]private goods;\r\n\r\naddress[] intermediates;\r\n//intermediates.push(msg.sender);\r\n//\r\nfunction getProduct(string memory _tag)public view returns (address ,string memory,uint,string memory,string memory){\r\nreturn(products[_tag].producer,products[_tag].name,products[_tag].quantity,products[_tag].tag,products[_tag].proddescription);}    \r\n\r\n\r\nfunction sendShipment(string memory _asset,string memory trackingNo, string memory _destination,uint _quantity,address _reciever)public returns(bool){\r\nif(msg.sender!=receiverAddess)\r\n{assetTransfer[trackingNo].asset=_asset;\r\nassetTransfer[trackingNo].shipmentlocation=_destination;\r\nassetTransfer[trackingNo].trackingNo=trackingNo;\r\nassetTransfer[trackingNo].quantity=_quantity;\r\nassetTransfer[trackingNo].sender=msg.sender;\r\nassetTransfer[trackingNo].receiver=_reciever;\r\nif(msg.sender!=owner)\r\nassetTransfer[trackingNo].intermediate=msg.sender;\r\n\r\n}\r\n\r\n\r\nemit Shipped(\"shipment sent\", trackingNo, msg.sender, _destination);\r\nreturn true;}\r\n\r\n\r\n\r\n// function intermediatePoints(string memory _asset,string memory trackingNo, string memory _destination,uint _quantity,address _reciever, address _sender)public returns(bool){\r\n// assetTransfer[trackingNo].asset=_asset;\r\n// assetTransfer[trackingNo].shipmentlocation=_destination;//current location\r\n// assetTransfer[trackingNo].trackingNo=trackingNo;\r\n// assetTransfer[trackingNo].quantity=_quantity;\r\n// assetTransfer[trackingNo].sender=_sender;\r\n// assetTransfer[trackingNo].receiver=_reciever;\r\n// intermediates.push(msg.sender);\r\n// emit Shipped(\"shipment sent\", trackingNo, _sender, _destination);\r\n// return true;}\r\n\r\n\r\n\r\nfunction setconditions(string memory _location,uint _quantity,address _receiverAddess,string memory _asset)public{\r\nlocation=_location;\r\nquantity=_quantity;\r\n//payment=_payment;\r\nreceiverAddess=_receiverAddess;\r\nproduct=_asset;\r\n \r\nemit Message('conditions are set'); }\r\n\r\n\r\n//alloting shipment\r\nfunction getshipment(string memory _location,uint _quantity,string memory _asset,string memory trackingNo)public returns(bool){\r\nif((assetTransfer[trackingNo].quantity)==_quantity && \r\nkeccak256(abi.encodePacked(assetTransfer[trackingNo].asset))==keccak256(abi.encodePacked(_asset))){\r\nemit Shipped('Shipment recieved',trackingNo,msg.sender,_location);    \r\nif (msg.sender==receiverAddess){\r\n    msg.sender.transfer(accbalance[owner]); \r\n}\r\n//makepayment(assetTransfer[trackingNo].receiver,assetTransfer[trackingNo].sender,payment);}\r\n//else{\r\n//emit Message('Payment not made');}    \r\n//return true;}\r\n//else{\r\n//emit Message('wrong location/quantity/item');    \r\n//return false;}*/\r\nreturn true;}\r\n}\r\n\r\n//history of shipment\r\nfunction showProvenance(string memory _trackingNo)public view returns(string memory,string memory, address,address,address,string memory){\r\nreturn(assetTransfer[_trackingNo].asset,\r\nassetTransfer[_trackingNo].trackingNo, \r\nassetTransfer[_trackingNo].sender,\r\nassetTransfer[_trackingNo].intermediate,\r\nassetTransfer[_trackingNo].receiver,\r\nassetTransfer[_trackingNo].shipmentlocation);\r\n    \r\n}\r\n\r\n\r\nfunction getAllCryptographersAddresses() public view returns (address[] memory) {\r\n    return intermediates;\r\n}}\r\n\r\n\r\n//receiver--0x38C8EEC08c97875a1A506134993a9196bfc79E6F--sender\r\n//sender--0x828BEc28739f5c8abd110d51f5fC9adC76c30C4e\r\n//new receiver-- 0x7346Eb2DF4BEC721c39060223554Ec9C4405dbC0\r\n// Sequence\r\n// setcondition\r\n// sendShipment-->owner address\r\n//getshipment-->intermediate address\r\n//sendshipemnt-->intermediate address\r\n//getshipemnt-->destination address\r\n\r\n",
  "sourcePath": "C:/Users/Admin/Desktop/nodeProject/SIH Gail E-tendering/contracts/shipmentContract.sol",
  "compiler": {
    "name": "solc",
    "version": "0.5.1+commit.c8a2cb62.Emscripten.clang"
  },
  "schemaVersion": "3.2.3",
  "updatedAt": "2020-08-03T01:26:02.242Z",
  "networkType": "ethereum",
  "devdoc": {
    "methods": {}
  },
  "userdoc": {
    "methods": {}
  }
}